{"abi":[{"type":"constructor","inputs":[{"name":"_treasury","type":"address","internalType":"address"}],"stateMutability":"nonpayable"},{"type":"function","name":"CLAIM_BOND","inputs":[],"outputs":[{"name":"","type":"uint256","internalType":"uint256"}],"stateMutability":"view"},{"type":"function","name":"INITIAL_REPUTATION","inputs":[],"outputs":[{"name":"","type":"uint256","internalType":"uint256"}],"stateMutability":"view"},{"type":"function","name":"MAX_REPUTATION","inputs":[],"outputs":[{"name":"","type":"uint256","internalType":"uint256"}],"stateMutability":"view"},{"type":"function","name":"MIN_STAKE","inputs":[],"outputs":[{"name":"","type":"uint256","internalType":"uint256"}],"stateMutability":"view"},{"type":"function","name":"MISS_SLASH_BPS","inputs":[],"outputs":[{"name":"","type":"uint256","internalType":"uint256"}],"stateMutability":"view"},{"type":"function","name":"MISS_WINDOW","inputs":[],"outputs":[{"name":"","type":"uint256","internalType":"uint256"}],"stateMutability":"view"},{"type":"function","name":"STAKE_PER_CLAIM_SLOT","inputs":[],"outputs":[{"name":"","type":"uint256","internalType":"uint256"}],"stateMutability":"view"},{"type":"function","name":"addStake","inputs":[{"name":"agentId","type":"uint256","internalType":"uint256"}],"outputs":[],"stateMutability":"payable"},{"type":"function","name":"agentData","inputs":[{"name":"","type":"uint256","internalType":"uint256"}],"outputs":[{"name":"operator","type":"address","internalType":"address"},{"name":"stake","type":"uint256","internalType":"uint256"},{"name":"reputationScore","type":"uint256","internalType":"uint256"},{"name":"tasksCompleted","type":"uint256","internalType":"uint256"},{"name":"tasksFailed","type":"uint256","internalType":"uint256"},{"name":"claimBondsForfeited","type":"uint256","internalType":"uint256"},{"name":"missCount","type":"uint256","internalType":"uint256"},{"name":"firstMissAt","type":"uint256","internalType":"uint256"},{"name":"active","type":"bool","internalType":"bool"}],"stateMutability":"view"},{"type":"function","name":"agentOf","inputs":[{"name":"operator","type":"address","internalType":"address"}],"outputs":[{"name":"tokenId","type":"uint256","internalType":"uint256"}],"stateMutability":"view"},{"type":"function","name":"approve","inputs":[{"name":"to","type":"address","internalType":"address"},{"name":"tokenId","type":"uint256","internalType":"uint256"}],"outputs":[],"stateMutability":"nonpayable"},{"type":"function","name":"balanceOf","inputs":[{"name":"owner","type":"address","internalType":"address"}],"outputs":[{"name":"","type":"uint256","internalType":"uint256"}],"stateMutability":"view"},{"type":"function","name":"deregister","inputs":[{"name":"agentId","type":"uint256","internalType":"uint256"}],"outputs":[],"stateMutability":"nonpayable"},{"type":"function","name":"getAgentURI","inputs":[{"name":"tokenId","type":"uint256","internalType":"uint256"}],"outputs":[{"name":"","type":"string","internalType":"string"}],"stateMutability":"view"},{"type":"function","name":"getApproved","inputs":[{"name":"tokenId","type":"uint256","internalType":"uint256"}],"outputs":[{"name":"","type":"address","internalType":"address"}],"stateMutability":"view"},{"type":"function","name":"getFeedback","inputs":[{"name":"agentId","type":"uint256","internalType":"uint256"}],"outputs":[{"name":"score","type":"uint256","internalType":"uint256"},{"name":"totalInteractions","type":"uint256","internalType":"uint256"}],"stateMutability":"view"},{"type":"function","name":"hasCapability","inputs":[{"name":"agentId","type":"uint256","internalType":"uint256"},{"name":"cap","type":"bytes32","internalType":"bytes32"}],"outputs":[{"name":"","type":"bool","internalType":"bool"}],"stateMutability":"view"},{"type":"function","name":"isApprovedForAll","inputs":[{"name":"owner","type":"address","internalType":"address"},{"name":"operator","type":"address","internalType":"address"}],"outputs":[{"name":"","type":"bool","internalType":"bool"}],"stateMutability":"view"},{"type":"function","name":"maxConcurrentClaims","inputs":[{"name":"agentId","type":"uint256","internalType":"uint256"}],"outputs":[{"name":"","type":"uint256","internalType":"uint256"}],"stateMutability":"view"},{"type":"function","name":"name","inputs":[],"outputs":[{"name":"","type":"string","internalType":"string"}],"stateMutability":"view"},{"type":"function","name":"operatorToId","inputs":[{"name":"","type":"address","internalType":"address"}],"outputs":[{"name":"","type":"uint256","internalType":"uint256"}],"stateMutability":"view"},{"type":"function","name":"ownerOf","inputs":[{"name":"tokenId","type":"uint256","internalType":"uint256"}],"outputs":[{"name":"","type":"address","internalType":"address"}],"stateMutability":"view"},{"type":"function","name":"postFeedback","inputs":[{"name":"agentId","type":"uint256","internalType":"uint256"},{"name":"success","type":"bool","internalType":"bool"},{"name":"latencyMs","type":"uint256","internalType":"uint256"},{"name":"","type":"bytes","internalType":"bytes"}],"outputs":[],"stateMutability":"nonpayable"},{"type":"function","name":"recordValidation","inputs":[{"name":"requestId","type":"bytes32","internalType":"bytes32"},{"name":"valid","type":"bool","internalType":"bool"},{"name":"","type":"bytes","internalType":"bytes"}],"outputs":[],"stateMutability":"nonpayable"},{"type":"function","name":"registerAgent","inputs":[{"name":"metadataURI","type":"string","internalType":"string"}],"outputs":[{"name":"tokenId","type":"uint256","internalType":"uint256"}],"stateMutability":"payable"},{"type":"function","name":"requestValidation","inputs":[{"name":"agentId","type":"uint256","internalType":"uint256"},{"name":"taskId","type":"bytes32","internalType":"bytes32"},{"name":"proof","type":"bytes","internalType":"bytes"}],"outputs":[{"name":"requestId","type":"bytes32","internalType":"bytes32"}],"stateMutability":"nonpayable"},{"type":"function","name":"safeTransferFrom","inputs":[{"name":"from","type":"address","internalType":"address"},{"name":"to","type":"address","internalType":"address"},{"name":"tokenId","type":"uint256","internalType":"uint256"}],"outputs":[],"stateMutability":"nonpayable"},{"type":"function","name":"safeTransferFrom","inputs":[{"name":"from","type":"address","internalType":"address"},{"name":"to","type":"address","internalType":"address"},{"name":"tokenId","type":"uint256","internalType":"uint256"},{"name":"data","type":"bytes","internalType":"bytes"}],"outputs":[],"stateMutability":"nonpayable"},{"type":"function","name":"setApprovalForAll","inputs":[{"name":"operator","type":"address","internalType":"address"},{"name":"approved","type":"bool","internalType":"bool"}],"outputs":[],"stateMutability":"nonpayable"},{"type":"function","name":"setCapabilities","inputs":[{"name":"agentId","type":"uint256","internalType":"uint256"},{"name":"caps","type":"bytes32[]","internalType":"bytes32[]"}],"outputs":[],"stateMutability":"nonpayable"},{"type":"function","name":"setVerifier","inputs":[{"name":"_verifier","type":"address","internalType":"address"}],"outputs":[],"stateMutability":"nonpayable"},{"type":"function","name":"supportsInterface","inputs":[{"name":"interfaceId","type":"bytes4","internalType":"bytes4"}],"outputs":[{"name":"","type":"bool","internalType":"bool"}],"stateMutability":"view"},{"type":"function","name":"symbol","inputs":[],"outputs":[{"name":"","type":"string","internalType":"string"}],"stateMutability":"view"},{"type":"function","name":"tokenURI","inputs":[{"name":"tokenId","type":"uint256","internalType":"uint256"}],"outputs":[{"name":"","type":"string","internalType":"string"}],"stateMutability":"view"},{"type":"function","name":"transferFrom","inputs":[{"name":"from","type":"address","internalType":"address"},{"name":"to","type":"address","internalType":"address"},{"name":"tokenId","type":"uint256","internalType":"uint256"}],"outputs":[],"stateMutability":"nonpayable"},{"type":"function","name":"treasury","inputs":[],"outputs":[{"name":"","type":"address","internalType":"address"}],"stateMutability":"view"},{"type":"function","name":"verifier","inputs":[],"outputs":[{"name":"","type":"address","internalType":"address"}],"stateMutability":"view"},{"type":"event","name":"AgentRegistered","inputs":[{"name":"tokenId","type":"uint256","indexed":true,"internalType":"uint256"},{"name":"operator","type":"address","indexed":true,"internalType":"address"},{"name":"metadataURI","type":"string","indexed":false,"internalType":"string"}],"anonymous":false},{"type":"event","name":"Approval","inputs":[{"name":"owner","type":"address","indexed":true,"internalType":"address"},{"name":"approved","type":"address","indexed":true,"internalType":"address"},{"name":"tokenId","type":"uint256","indexed":true,"internalType":"uint256"}],"anonymous":false},{"type":"event","name":"ApprovalForAll","inputs":[{"name":"owner","type":"address","indexed":true,"internalType":"address"},{"name":"operator","type":"address","indexed":true,"internalType":"address"},{"name":"approved","type":"bool","indexed":false,"internalType":"bool"}],"anonymous":false},{"type":"event","name":"BatchMetadataUpdate","inputs":[{"name":"_fromTokenId","type":"uint256","indexed":false,"internalType":"uint256"},{"name":"_toTokenId","type":"uint256","indexed":false,"internalType":"uint256"}],"anonymous":false},{"type":"event","name":"FeedbackPosted","inputs":[{"name":"agentId","type":"uint256","indexed":true,"internalType":"uint256"},{"name":"success","type":"bool","indexed":false,"internalType":"bool"},{"name":"score","type":"uint256","indexed":false,"internalType":"uint256"}],"anonymous":false},{"type":"event","name":"MetadataUpdate","inputs":[{"name":"_tokenId","type":"uint256","indexed":false,"internalType":"uint256"}],"anonymous":false},{"type":"event","name":"Transfer","inputs":[{"name":"from","type":"address","indexed":true,"internalType":"address"},{"name":"to","type":"address","indexed":true,"internalType":"address"},{"name":"tokenId","type":"uint256","indexed":true,"internalType":"uint256"}],"anonymous":false},{"type":"event","name":"ValidationRecorded","inputs":[{"name":"requestId","type":"bytes32","indexed":true,"internalType":"bytes32"},{"name":"valid","type":"bool","indexed":false,"internalType":"bool"}],"anonymous":false},{"type":"event","name":"ValidationRequested","inputs":[{"name":"requestId","type":"bytes32","indexed":true,"internalType":"bytes32"},{"name":"agentId","type":"uint256","indexed":false,"internalType":"uint256"},{"name":"taskId","type":"bytes32","indexed":false,"internalType":"bytes32"}],"anonymous":false},{"type":"error","name":"AgentNotFound","inputs":[]},{"type":"error","name":"AlreadyRegistered","inputs":[]},{"type":"error","name":"ERC721IncorrectOwner","inputs":[{"name":"sender","type":"address","internalType":"address"},{"name":"tokenId","type":"uint256","internalType":"uint256"},{"name":"owner","type":"address","internalType":"address"}]},{"type":"error","name":"ERC721InsufficientApproval","inputs":[{"name":"operator","type":"address","internalType":"address"},{"name":"tokenId","type":"uint256","internalType":"uint256"}]},{"type":"error","name":"ERC721InvalidApprover","inputs":[{"name":"approver","type":"address","internalType":"address"}]},{"type":"error","name":"ERC721InvalidOperator","inputs":[{"name":"operator","type":"address","internalType":"address"}]},{"type":"error","name":"ERC721InvalidOwner","inputs":[{"name":"owner","type":"address","internalType":"address"}]},{"type":"error","name":"ERC721InvalidReceiver","inputs":[{"name":"receiver","type":"address","internalType":"address"}]},{"type":"error","name":"ERC721InvalidSender","inputs":[{"name":"sender","type":"address","internalType":"address"}]},{"type":"error","name":"ERC721NonexistentToken","inputs":[{"name":"tokenId","type":"uint256","internalType":"uint256"}]},{"type":"error","name":"InsufficientStake","inputs":[]},{"type":"error","name":"NotActive","inputs":[]},{"type":"error","name":"NotVerifier","inputs":[]},{"type":"error","name":"ReentrancyGuardReentrantCall","inputs":[]},{"type":"error","name":"WithdrawFailed","inputs":[]}],"bytecode":{"object":"0x608060405234801561000f575f5ffd5b50604051614883380380614883833981810160405281019061003191906101b8565b6040518060400160405280600d81526020017f4f6c796d707573204167656e74000000000000000000000000000000000000008152506040518060400160405280600481526020017f4f41475400000000000000000000000000000000000000000000000000000000815250815f90816100ab9190610420565b5080600190816100bb9190610420565b50505060016100dc6100d161012860201b60201c565b61015160201b60201c565b5f018190555080600b5f6101000a81548173ffffffffffffffffffffffffffffffffffffffff021916908373ffffffffffffffffffffffffffffffffffffffff160217905550506104ef565b5f7f9b779b17422d0df92223018b32b4d1fa46e071723d6817e2486d003becc55f005f1b905090565b5f819050919050565b5f5ffd5b5f73ffffffffffffffffffffffffffffffffffffffff82169050919050565b5f6101878261015e565b9050919050565b6101978161017d565b81146101a1575f5ffd5b50565b5f815190506101b28161018e565b92915050565b5f602082840312156101cd576101cc61015a565b5b5f6101da848285016101a4565b91505092915050565b5f81519050919050565b7f4e487b71000000000000000000000000000000000000000000000000000000005f52604160045260245ffd5b7f4e487b71000000000000000000000000000000000000000000000000000000005f52602260045260245ffd5b5f600282049050600182168061025e57607f821691505b6020821081036102715761027061021a565b5b50919050565b5f819050815f5260205f209050919050565b5f6020601f8301049050919050565b5f82821b905092915050565b5f600883026102d37fffffffffffffffffffffffffffffffffffffffffffffffffffffffffffffffff82610298565b6102dd8683610298565b95508019841693508086168417925050509392505050565b5f819050919050565b5f819050919050565b5f61032161031c610317846102f5565b6102fe565b6102f5565b9050919050565b5f819050919050565b61033a83610307565b61034e61034682610328565b8484546102a4565b825550505050565b5f5f905090565b610365610356565b610370818484610331565b505050565b5b81811015610393576103885f8261035d565b600181019050610376565b5050565b601f8211156103d8576103a981610277565b6103b284610289565b810160208510156103c1578190505b6103d56103cd85610289565b830182610375565b50505b505050565b5f82821c905092915050565b5f6103f85f19846008026103dd565b1980831691505092915050565b5f61041083836103e9565b9150826002028217905092915050565b610429826101e3565b67ffffffffffffffff811115610442576104416101ed565b5b61044c8254610247565b610457828285610397565b5f60209050601f831160018114610488575f8415610476578287015190505b6104808582610405565b8655506104e7565b601f19841661049686610277565b5f5b828110156104bd57848901518255600182019150602085019450602081019050610498565b868310156104da57848901516104d6601f8916826103e9565b8355505b6001600288020188555050505b505050505050565b614387806104fc5f395ff3fe608060405260043610610219575f3560e01c80637b05725811610122578063c87b56dd116100aa578063e29275191161006e578063e292751914610832578063e985e9c51461085c578063eb4f16b514610898578063f0dca0a0146108b4578063ff22c701146108f057610219565b8063c87b56dd1461073c578063c888ca1114610778578063cb1c2b5c146107a2578063ce91aede146107cc578063d213c0f21461080857610219565b8063a22cb465116100f1578063a22cb4651461064a578063ac3c0e3014610672578063b88d4fde146106ae578063b9e635ef146106d6578063c19c28e11461070057610219565b80637b05725814610576578063841502de146105a057806395d89b41146105dc5780639a92db911461060657610219565b80632b7ac3f3116101a5578063550b733111610174578063550b73311461046e57806361d027b3146104985780636352211e146104c2578063678d19e7146104fe57806370a082311461053a57610219565b80632b7ac3f3146103c45780632d2a9585146103ee57806342842e0e1461041e5780635437988d1461044657610219565b80631106a382116101ec5780631106a382146102e75780631a5dbfb41461032457806323b872dd1461034c5780632515ddd2146103745780632ab5c5cc1461039c57610219565b806301ffc9a71461021d57806306fdde0314610259578063081812fc14610283578063095ea7b3146102bf575b5f5ffd5b348015610228575f5ffd5b50610243600480360381019061023e9190613057565b610918565b604051610250919061309c565b60405180910390f35b348015610264575f5ffd5b5061026d610978565b60405161027a9190613125565b60405180910390f35b34801561028e575f5ffd5b506102a960048036038101906102a49190613178565b610a07565b6040516102b691906131e2565b60405180910390f35b3480156102ca575f5ffd5b506102e560048036038101906102e09190613225565b610a22565b005b3480156102f2575f5ffd5b5061030d60048036038101906103089190613178565b610a38565b60405161031b929190613272565b60405180910390f35b34801561032f575f5ffd5b5061034a60048036038101906103459190613178565b610a71565b005b348015610357575f5ffd5b50610372600480360381019061036d9190613299565b610d01565b005b34801561037f575f5ffd5b5061039a600480360381019061039591906133a7565b610e00565b005b3480156103a7575f5ffd5b506103c260048036038101906103bd919061346d565b610ec4565b005b3480156103cf575f5ffd5b506103d8611026565b6040516103e591906131e2565b60405180910390f35b6104086004803603810190610403919061351f565b61104b565b604051610415919061356a565b60405180910390f35b348015610429575f5ffd5b50610444600480360381019061043f9190613299565b61129f565b005b348015610451575f5ffd5b5061046c60048036038101906104679190613583565b6112be565b005b348015610479575f5ffd5b50610482611390565b60405161048f919061356a565b60405180910390f35b3480156104a3575f5ffd5b506104ac611397565b6040516104b991906131e2565b60405180910390f35b3480156104cd575f5ffd5b506104e860048036038101906104e39190613178565b6113bc565b6040516104f591906131e2565b60405180910390f35b348015610509575f5ffd5b50610524600480360381019061051f91906135ae565b6113cd565b604051610531919061309c565b60405180910390f35b348015610545575f5ffd5b50610560600480360381019061055b9190613583565b61143c565b60405161056d919061356a565b60405180910390f35b348015610581575f5ffd5b5061058a6114f2565b604051610597919061356a565b60405180910390f35b3480156105ab575f5ffd5b506105c660048036038101906105c19190613583565b6114f8565b6040516105d3919061356a565b60405180910390f35b3480156105e7575f5ffd5b506105f061150d565b6040516105fd9190613125565b60405180910390f35b348015610611575f5ffd5b5061062c60048036038101906106279190613178565b61159d565b604051610641999897969594939291906135ec565b60405180910390f35b348015610655575f5ffd5b50610670600480360381019061066b9190613677565b611612565b005b34801561067d575f5ffd5b5061069860048036038101906106939190613583565b611628565b6040516106a5919061356a565b60405180910390f35b3480156106b9575f5ffd5b506106d460048036038101906106cf91906137dd565b61166e565b005b3480156106e1575f5ffd5b506106ea611693565b6040516106f7919061356a565b60405180910390f35b34801561070b575f5ffd5b506107266004803603810190610721919061385d565b611699565b60405161073391906138dd565b60405180910390f35b348015610747575f5ffd5b50610762600480360381019061075d9190613178565b61170d565b60405161076f9190613125565b60405180910390f35b348015610783575f5ffd5b5061078c611789565b604051610799919061356a565b60405180910390f35b3480156107ad575f5ffd5b506107b6611794565b6040516107c3919061356a565b60405180910390f35b3480156107d7575f5ffd5b506107f260048036038101906107ed9190613178565b61179f565b6040516107ff9190613125565b60405180910390f35b348015610813575f5ffd5b5061081c6117b1565b604051610829919061356a565b60405180910390f35b34801561083d575f5ffd5b506108466117b7565b604051610853919061356a565b60405180910390f35b348015610867575f5ffd5b50610882600480360381019061087d91906138f6565b6117c1565b60405161088f919061309c565b60405180910390f35b6108b260048036038101906108ad9190613178565b61184f565b005b3480156108bf575f5ffd5b506108da60048036038101906108d59190613178565b6119b5565b6040516108e7919061356a565b60405180910390f35b3480156108fb575f5ffd5b5061091660048036038101906109119190613934565b6119e4565b005b5f634906490660e01b7bffffffffffffffffffffffffffffffffffffffffffffffffffffffff1916827bffffffffffffffffffffffffffffffffffffffffffffffffffffffff19161480610971575061097082611c39565b5b9050919050565b60605f8054610986906139e5565b80601f01602080910402602001604051908101604052809291908181526020018280546109b2906139e5565b80156109fd5780601f106109d4576101008083540402835291602001916109fd565b820191905f5260205f20905b8154815290600101906020018083116109e057829003601f168201915b5050505050905090565b5f610a1182611d1a565b50610a1b82611da0565b9050919050565b610a348282610a2f611dd9565b611de0565b5050565b5f5f5f60085f8581526020019081526020015f209050806003015481600501548260040154610a679190613a42565b9250925050915091565b610a79611df2565b805f73ffffffffffffffffffffffffffffffffffffffff1660085f8381526020019081526020015f205f015f9054906101000a900473ffffffffffffffffffffffffffffffffffffffff1673ffffffffffffffffffffffffffffffffffffffff1603610b11576040517fe93ba22300000000000000000000000000000000000000000000000000000000815260040160405180910390fd5b5f60085f8481526020019081526020015f209050805f015f9054906101000a900473ffffffffffffffffffffffffffffffffffffffff1673ffffffffffffffffffffffffffffffffffffffff163373ffffffffffffffffffffffffffffffffffffffff1614610bb5576040517f08c379a0000000000000000000000000000000000000000000000000000000008152600401610bac90613abf565b60405180910390fd5b806009015f9054906101000a900460ff16610c05576040517f08c379a0000000000000000000000000000000000000000000000000000000008152600401610bfc90613b27565b60405180910390fd5b5f816009015f6101000a81548160ff0219169083151502179055505f816002015490505f82600201819055505f825f015f9054906101000a900473ffffffffffffffffffffffffffffffffffffffff1673ffffffffffffffffffffffffffffffffffffffff1682604051610c7890613b72565b5f6040518083038185875af1925050503d805f8114610cb2576040519150601f19603f3d011682016040523d82523d5f602084013e610cb7565b606091505b5050905080610cf2576040517f750b219c00000000000000000000000000000000000000000000000000000000815260040160405180910390fd5b50505050610cfe611e14565b50565b5f73ffffffffffffffffffffffffffffffffffffffff168273ffffffffffffffffffffffffffffffffffffffff1603610d71575f6040517f64a0ae92000000000000000000000000000000000000000000000000000000008152600401610d6891906131e2565b60405180910390fd5b5f610d848383610d7f611dd9565b611e2e565b90508373ffffffffffffffffffffffffffffffffffffffff168173ffffffffffffffffffffffffffffffffffffffff1614610dfa578382826040517f64283d7b000000000000000000000000000000000000000000000000000000008152600401610df193929190613b86565b60405180910390fd5b50505050565b600a5f9054906101000a900473ffffffffffffffffffffffffffffffffffffffff1673ffffffffffffffffffffffffffffffffffffffff163373ffffffffffffffffffffffffffffffffffffffff1614610e86576040517f2466355600000000000000000000000000000000000000000000000000000000815260040160405180910390fd5b837f466d91783b06f98eb155ed1db286b1fe0d36328a5ca84b786befbf314d86be1784604051610eb6919061309c565b60405180910390a250505050565b825f73ffffffffffffffffffffffffffffffffffffffff1660085f8381526020019081526020015f205f015f9054906101000a900473ffffffffffffffffffffffffffffffffffffffff1673ffffffffffffffffffffffffffffffffffffffff1603610f5c576040517fe93ba22300000000000000000000000000000000000000000000000000000000815260040160405180910390fd5b60085f8581526020019081526020015f205f015f9054906101000a900473ffffffffffffffffffffffffffffffffffffffff1673ffffffffffffffffffffffffffffffffffffffff163373ffffffffffffffffffffffffffffffffffffffff1614610ffc576040517f08c379a0000000000000000000000000000000000000000000000000000000008152600401610ff390613abf565b60405180910390fd5b828260085f8781526020019081526020015f20600101919061101f929190612f8b565b5050505050565b600a5f9054906101000a900473ffffffffffffffffffffffffffffffffffffffff1681565b5f611054611df2565b662386f26fc10000341015611095576040517ff1bc94d200000000000000000000000000000000000000000000000000000000815260040160405180910390fd5b5f60095f3373ffffffffffffffffffffffffffffffffffffffff1673ffffffffffffffffffffffffffffffffffffffff1681526020019081526020015f20541461110b576040517f3a81d6fc00000000000000000000000000000000000000000000000000000000815260040160405180910390fd5b60075f815461111990613bbb565b919050819055905061112b3382612039565b6111788184848080601f0160208091040260200160405190810160405280939291908181526020018383808284375f81840152601f19601f82011690508083019250505050505050612056565b8060095f3373ffffffffffffffffffffffffffffffffffffffff1673ffffffffffffffffffffffffffffffffffffffff1681526020019081526020015f20819055505f60085f8381526020019081526020015f20905033815f015f6101000a81548173ffffffffffffffffffffffffffffffffffffffff021916908373ffffffffffffffffffffffffffffffffffffffff1602179055503481600201819055506101f481600301819055506001816009015f6101000a81548160ff0219169083151502179055503373ffffffffffffffffffffffffffffffffffffffff16827f0d063c6022bff16d09991a9f91882ffa112f5fb2529136f65eb4c77bbd047e438686604051611288929190613c2e565b60405180910390a350611299611e14565b92915050565b6112b983838360405180602001604052805f81525061166e565b505050565b5f73ffffffffffffffffffffffffffffffffffffffff16600a5f9054906101000a900473ffffffffffffffffffffffffffffffffffffffff1673ffffffffffffffffffffffffffffffffffffffff161461134d576040517f08c379a000000000000000000000000000000000000000000000000000000000815260040161134490613c9a565b60405180910390fd5b80600a5f6101000a81548173ffffffffffffffffffffffffffffffffffffffff021916908373ffffffffffffffffffffffffffffffffffffffff16021790555050565b6201518081565b600b5f9054906101000a900473ffffffffffffffffffffffffffffffffffffffff1681565b5f6113c682611d1a565b9050919050565b5f5f60085f8581526020019081526020015f2060010190505f5f90505b8180549050811015611430578382828154811061140a57611409613cb8565b5b905f5260205f2001540361142357600192505050611436565b80806001019150506113ea565b505f9150505b92915050565b5f5f73ffffffffffffffffffffffffffffffffffffffff168273ffffffffffffffffffffffffffffffffffffffff16036114ad575f6040517f89c62b640000000000000000000000000000000000000000000000000000000081526004016114a491906131e2565b60405180910390fd5b60035f8373ffffffffffffffffffffffffffffffffffffffff1673ffffffffffffffffffffffffffffffffffffffff1681526020019081526020015f20549050919050565b6101f481565b6009602052805f5260405f205f915090505481565b60606001805461151c906139e5565b80601f0160208091040260200160405190810160405280929190818152602001828054611548906139e5565b80156115935780601f1061156a57610100808354040283529160200191611593565b820191905f5260205f20905b81548152906001019060200180831161157657829003601f168201915b5050505050905090565b6008602052805f5260405f205f91509050805f015f9054906101000a900473ffffffffffffffffffffffffffffffffffffffff1690806002015490806003015490806004015490806005015490806006015490806007015490806008015490806009015f9054906101000a900460ff16905089565b61162461161d611dd9565b83836120b0565b5050565b5f60095f8373ffffffffffffffffffffffffffffffffffffffff1673ffffffffffffffffffffffffffffffffffffffff1681526020019081526020015f20549050919050565b611679848484610d01565b61168d611684611dd9565b85858585612289565b50505050565b6103e881565b5f84848484426040516020016116b3959493929190613d49565b604051602081830303815290604052805190602001209050807f0382e3cde104372cc2869ad0cfa84af225aaac5cba0d3dcdce08c848b21de3e386866040516116fd929190613d94565b60405180910390a2949350505050565b606061171882611d1a565b505f611722612435565b90505f61172e8461244b565b90505f825103611742578092505050611784565b5f8151111561177657818160405160200161175e929190613df5565b60405160208183030381529060405292505050611784565b61177f846124ec565b925050505b919050565b6611c37937e0800081565b662386f26fc1000081565b60606117aa8261170d565b9050919050565b6103e881565b655af3107a400081565b5f60055f8473ffffffffffffffffffffffffffffffffffffffff1673ffffffffffffffffffffffffffffffffffffffff1681526020019081526020015f205f8373ffffffffffffffffffffffffffffffffffffffff1673ffffffffffffffffffffffffffffffffffffffff1681526020019081526020015f205f9054906101000a900460ff16905092915050565b805f73ffffffffffffffffffffffffffffffffffffffff1660085f8381526020019081526020015f205f015f9054906101000a900473ffffffffffffffffffffffffffffffffffffffff1673ffffffffffffffffffffffffffffffffffffffff16036118e7576040517fe93ba22300000000000000000000000000000000000000000000000000000000815260040160405180910390fd5b60085f8381526020019081526020015f205f015f9054906101000a900473ffffffffffffffffffffffffffffffffffffffff1673ffffffffffffffffffffffffffffffffffffffff163373ffffffffffffffffffffffffffffffffffffffff1614611987576040517f08c379a000000000000000000000000000000000000000000000000000000000815260040161197e90613abf565b60405180910390fd5b3460085f8481526020019081526020015f206002015f8282546119aa9190613a42565b925050819055505050565b5f6611c37937e0800060085f8481526020019081526020015f20600201546119dd9190613e45565b9050919050565b600a5f9054906101000a900473ffffffffffffffffffffffffffffffffffffffff1673ffffffffffffffffffffffffffffffffffffffff163373ffffffffffffffffffffffffffffffffffffffff1614611a6a576040517f2466355600000000000000000000000000000000000000000000000000000000815260040160405180910390fd5b845f73ffffffffffffffffffffffffffffffffffffffff1660085f8381526020019081526020015f205f015f9054906101000a900473ffffffffffffffffffffffffffffffffffffffff1673ffffffffffffffffffffffffffffffffffffffff1603611b02576040517fe93ba22300000000000000000000000000000000000000000000000000000000815260040160405180910390fd5b5f60085f8881526020019081526020015f2090505f6127108611611b40576127106101f487611b319190613e75565b611b3b9190613e45565b611b44565b6101f45b90505f87611b52575f611b61565b816103e8611b609190613eb6565b5b90506064600a82611b729190613e75565b605a8560030154611b839190613e75565b611b8d9190613a42565b611b979190613e45565b83600301819055508715611bcc57826004015f815480929190611bb990613bbb565b91905055505f8360070181905550611bf0565b826005015f815480929190611be090613bbb565b9190505550611bef8984612552565b5b887fe86ec80cf945c76063c08e001462ee1ddf410abe4ef76a921041cf758ae9679d898560030154604051611c26929190613ee9565b60405180910390a2505050505050505050565b5f7f80ac58cd000000000000000000000000000000000000000000000000000000007bffffffffffffffffffffffffffffffffffffffffffffffffffffffff1916827bffffffffffffffffffffffffffffffffffffffffffffffffffffffff19161480611d0357507f5b5e139f000000000000000000000000000000000000000000000000000000007bffffffffffffffffffffffffffffffffffffffffffffffffffffffff1916827bffffffffffffffffffffffffffffffffffffffffffffffffffffffff1916145b80611d135750611d12826127e7565b5b9050919050565b5f5f611d2583612850565b90505f73ffffffffffffffffffffffffffffffffffffffff168173ffffffffffffffffffffffffffffffffffffffff1603611d9757826040517f7e273289000000000000000000000000000000000000000000000000000000008152600401611d8e919061356a565b60405180910390fd5b80915050919050565b5f60045f8381526020019081526020015f205f9054906101000a900473ffffffffffffffffffffffffffffffffffffffff169050919050565b5f33905090565b611ded8383836001612889565b505050565b611dfa612a48565b6002611e0c611e07612a89565b612ab2565b5f0181905550565b6001611e26611e21612a89565b612ab2565b5f0181905550565b5f5f611e3984612850565b90505f73ffffffffffffffffffffffffffffffffffffffff168373ffffffffffffffffffffffffffffffffffffffff1614611e7a57611e79818486612abb565b5b5f73ffffffffffffffffffffffffffffffffffffffff168173ffffffffffffffffffffffffffffffffffffffff1614611f0557611eb95f855f5f612889565b600160035f8373ffffffffffffffffffffffffffffffffffffffff1673ffffffffffffffffffffffffffffffffffffffff1681526020019081526020015f205f82825403925050819055505b5f73ffffffffffffffffffffffffffffffffffffffff168573ffffffffffffffffffffffffffffffffffffffff1614611f8457600160035f8773ffffffffffffffffffffffffffffffffffffffff1673ffffffffffffffffffffffffffffffffffffffff1681526020019081526020015f205f82825401925050819055505b8460025f8681526020019081526020015f205f6101000a81548173ffffffffffffffffffffffffffffffffffffffff021916908373ffffffffffffffffffffffffffffffffffffffff160217905550838573ffffffffffffffffffffffffffffffffffffffff168273ffffffffffffffffffffffffffffffffffffffff167fddf252ad1be2c89b69c2b068fc378daa952ba7f163c4a11628f55a4df523b3ef60405160405180910390a4809150509392505050565b612052828260405180602001604052805f815250612b7e565b5050565b8060065f8481526020019081526020015f20908161207491906140b0565b507ff8e1a15aba9398e019f0b49df1a4fde98ee17ae345cb5f6b5e2c27f5033e8ce7826040516120a4919061356a565b60405180910390a15050565b5f73ffffffffffffffffffffffffffffffffffffffff168373ffffffffffffffffffffffffffffffffffffffff1603612120575f6040517fa9fbf51f00000000000000000000000000000000000000000000000000000000815260040161211791906131e2565b60405180910390fd5b5f73ffffffffffffffffffffffffffffffffffffffff168273ffffffffffffffffffffffffffffffffffffffff160361219057816040517f5b08ba1800000000000000000000000000000000000000000000000000000000815260040161218791906131e2565b60405180910390fd5b8060055f8573ffffffffffffffffffffffffffffffffffffffff1673ffffffffffffffffffffffffffffffffffffffff1681526020019081526020015f205f8473ffffffffffffffffffffffffffffffffffffffff1673ffffffffffffffffffffffffffffffffffffffff1681526020019081526020015f205f6101000a81548160ff0219169083151502179055508173ffffffffffffffffffffffffffffffffffffffff168373ffffffffffffffffffffffffffffffffffffffff167f17307eab39ab6107e8899845ad3d59bd9653f200f220920489ca2b5937696c318360405161227c919061309c565b60405180910390a3505050565b5f8373ffffffffffffffffffffffffffffffffffffffff163b111561242e578273ffffffffffffffffffffffffffffffffffffffff1663150b7a02868685856040518563ffffffff1660e01b81526004016122e794939291906141d1565b6020604051808303815f875af192505050801561232257506040513d601f19601f8201168201806040525081019061231f919061422f565b60015b6123a3573d805f8114612350576040519150601f19603f3d011682016040523d82523d5f602084013e612355565b606091505b505f81510361239b57836040517f64a0ae9200000000000000000000000000000000000000000000000000000000815260040161239291906131e2565b60405180910390fd5b805160208201fd5b63150b7a0260e01b7bffffffffffffffffffffffffffffffffffffffffffffffffffffffff1916817bffffffffffffffffffffffffffffffffffffffffffffffffffffffff19161461242c57836040517f64a0ae9200000000000000000000000000000000000000000000000000000000815260040161242391906131e2565b60405180910390fd5b505b5050505050565b606060405180602001604052805f815250905090565b606060065f8381526020019081526020015f208054612469906139e5565b80601f0160208091040260200160405190810160405280929190818152602001828054612495906139e5565b80156124e05780601f106124b7576101008083540402835291602001916124e0565b820191905f5260205f20905b8154815290600101906020018083116124c357829003601f168201915b50505050509050919050565b60606124f782611d1a565b505f612501612435565b90505f81511161251f5760405180602001604052805f81525061254a565b8061252984612ba1565b60405160200161253a929190613df5565b6040516020818303038152906040525b915050919050565b5f8160070154148061257557506201518081600801546125729190613a42565b42115b1561259257600181600701819055504281600801819055506127ca565b806007015f8154809291906125a690613bbb565b919050555060028160070154036126c3575f6127106103e883600201546125cd9190613e75565b6125d79190613e45565b905080826002015f8282546125ec9190613eb6565b925050819055505f600b5f9054906101000a900473ffffffffffffffffffffffffffffffffffffffff1673ffffffffffffffffffffffffffffffffffffffff168260405161263990613b72565b5f6040518083038185875af1925050503d805f8114612673576040519150601f19603f3d011682016040523d82523d5f602084013e612678565b606091505b50509050806126bc576040517f08c379a00000000000000000000000000000000000000000000000000000000081526004016126b3906142a4565b60405180910390fd5b50506127c9565b60038160070154106127c8575f816009015f6101000a81548160ff0219169083151502179055505f816002015490505f82600201819055505f825f015f9054906101000a900473ffffffffffffffffffffffffffffffffffffffff1673ffffffffffffffffffffffffffffffffffffffff168260405161274290613b72565b5f6040518083038185875af1925050503d805f811461277c576040519150601f19603f3d011682016040523d82523d5f602084013e612781565b606091505b50509050806127c5576040517f08c379a00000000000000000000000000000000000000000000000000000000081526004016127bc9061430c565b60405180910390fd5b50505b5b5b806006015f8154809291906127de90613bbb565b91905055505050565b5f7f01ffc9a7000000000000000000000000000000000000000000000000000000007bffffffffffffffffffffffffffffffffffffffffffffffffffffffff1916827bffffffffffffffffffffffffffffffffffffffffffffffffffffffff1916149050919050565b5f60025f8381526020019081526020015f205f9054906101000a900473ffffffffffffffffffffffffffffffffffffffff169050919050565b80806128c157505f73ffffffffffffffffffffffffffffffffffffffff168273ffffffffffffffffffffffffffffffffffffffff1614155b156129f3575f6128d084611d1a565b90505f73ffffffffffffffffffffffffffffffffffffffff168373ffffffffffffffffffffffffffffffffffffffff161415801561293a57508273ffffffffffffffffffffffffffffffffffffffff168173ffffffffffffffffffffffffffffffffffffffff1614155b801561294d575061294b81846117c1565b155b1561298f57826040517fa9fbf51f00000000000000000000000000000000000000000000000000000000815260040161298691906131e2565b60405180910390fd5b81156129f157838573ffffffffffffffffffffffffffffffffffffffff168273ffffffffffffffffffffffffffffffffffffffff167f8c5be1e5ebec7d5bd14f71427d1e84f3dd0314c0f7b2291e5b200ac8c7c3b92560405160405180910390a45b505b8360045f8581526020019081526020015f205f6101000a81548173ffffffffffffffffffffffffffffffffffffffff021916908373ffffffffffffffffffffffffffffffffffffffff16021790555050505050565b612a50612c6b565b15612a87576040517f3ee5aeb500000000000000000000000000000000000000000000000000000000815260040160405180910390fd5b565b5f7f9b779b17422d0df92223018b32b4d1fa46e071723d6817e2486d003becc55f005f1b905090565b5f819050919050565b612ac6838383612c87565b612b79575f73ffffffffffffffffffffffffffffffffffffffff168373ffffffffffffffffffffffffffffffffffffffff1603612b3a57806040517f7e273289000000000000000000000000000000000000000000000000000000008152600401612b31919061356a565b60405180910390fd5b81816040517f177e802f000000000000000000000000000000000000000000000000000000008152600401612b7092919061432a565b60405180910390fd5b505050565b612b888383612d47565b612b9c612b93611dd9565b5f858585612289565b505050565b60605f6001612baf84612e3a565b0190505f8167ffffffffffffffff811115612bcd57612bcc6136b9565b5b6040519080825280601f01601f191660200182016040528015612bff5781602001600182028036833780820191505090505b5090505f82602083010190505b600115612c60578080600190039150507f3031323334353637383961626364656600000000000000000000000000000000600a86061a8153600a8581612c5557612c54613e18565b5b0494505f8503612c0c575b819350505050919050565b5f6002612c7e612c79612a89565b612ab2565b5f015414905090565b5f5f73ffffffffffffffffffffffffffffffffffffffff168373ffffffffffffffffffffffffffffffffffffffff1614158015612d3e57508273ffffffffffffffffffffffffffffffffffffffff168473ffffffffffffffffffffffffffffffffffffffff161480612cff5750612cfe84846117c1565b5b80612d3d57508273ffffffffffffffffffffffffffffffffffffffff16612d2583611da0565b73ffffffffffffffffffffffffffffffffffffffff16145b5b90509392505050565b5f73ffffffffffffffffffffffffffffffffffffffff168273ffffffffffffffffffffffffffffffffffffffff1603612db7575f6040517f64a0ae92000000000000000000000000000000000000000000000000000000008152600401612dae91906131e2565b60405180910390fd5b5f612dc383835f611e2e565b90505f73ffffffffffffffffffffffffffffffffffffffff168173ffffffffffffffffffffffffffffffffffffffff1614612e35575f6040517f73c6ac6e000000000000000000000000000000000000000000000000000000008152600401612e2c91906131e2565b60405180910390fd5b505050565b5f5f5f90507a184f03e93ff9f4daa797ed6e38ed64bf6a1f0100000000000000008310612e96577a184f03e93ff9f4daa797ed6e38ed64bf6a1f0100000000000000008381612e8c57612e8b613e18565b5b0492506040810190505b6d04ee2d6d415b85acef81000000008310612ed3576d04ee2d6d415b85acef81000000008381612ec957612ec8613e18565b5b0492506020810190505b662386f26fc100008310612f0257662386f26fc100008381612ef857612ef7613e18565b5b0492506010810190505b6305f5e1008310612f2b576305f5e1008381612f2157612f20613e18565b5b0492506008810190505b6127108310612f50576127108381612f4657612f45613e18565b5b0492506004810190505b60648310612f735760648381612f6957612f68613e18565b5b0492506002810190505b600a8310612f82576001810190505b80915050919050565b828054828255905f5260205f20908101928215612fc5579160200282015b82811115612fc4578235825591602001919060010190612fa9565b5b509050612fd29190612fd6565b5090565b5b80821115612fed575f815f905550600101612fd7565b5090565b5f604051905090565b5f5ffd5b5f5ffd5b5f7fffffffff0000000000000000000000000000000000000000000000000000000082169050919050565b61303681613002565b8114613040575f5ffd5b50565b5f813590506130518161302d565b92915050565b5f6020828403121561306c5761306b612ffa565b5b5f61307984828501613043565b91505092915050565b5f8115159050919050565b61309681613082565b82525050565b5f6020820190506130af5f83018461308d565b92915050565b5f81519050919050565b5f82825260208201905092915050565b8281835e5f83830152505050565b5f601f19601f8301169050919050565b5f6130f7826130b5565b61310181856130bf565b93506131118185602086016130cf565b61311a816130dd565b840191505092915050565b5f6020820190508181035f83015261313d81846130ed565b905092915050565b5f819050919050565b61315781613145565b8114613161575f5ffd5b50565b5f813590506131728161314e565b92915050565b5f6020828403121561318d5761318c612ffa565b5b5f61319a84828501613164565b91505092915050565b5f73ffffffffffffffffffffffffffffffffffffffff82169050919050565b5f6131cc826131a3565b9050919050565b6131dc816131c2565b82525050565b5f6020820190506131f55f8301846131d3565b92915050565b613204816131c2565b811461320e575f5ffd5b50565b5f8135905061321f816131fb565b92915050565b5f5f6040838503121561323b5761323a612ffa565b5b5f61324885828601613211565b925050602061325985828601613164565b9150509250929050565b61326c81613145565b82525050565b5f6040820190506132855f830185613263565b6132926020830184613263565b9392505050565b5f5f5f606084860312156132b0576132af612ffa565b5b5f6132bd86828701613211565b93505060206132ce86828701613211565b92505060406132df86828701613164565b9150509250925092565b5f819050919050565b6132fb816132e9565b8114613305575f5ffd5b50565b5f81359050613316816132f2565b92915050565b61332581613082565b811461332f575f5ffd5b50565b5f813590506133408161331c565b92915050565b5f5ffd5b5f5ffd5b5f5ffd5b5f5f83601f84011261336757613366613346565b5b8235905067ffffffffffffffff8111156133845761338361334a565b5b6020830191508360018202830111156133a05761339f61334e565b5b9250929050565b5f5f5f5f606085870312156133bf576133be612ffa565b5b5f6133cc87828801613308565b94505060206133dd87828801613332565b935050604085013567ffffffffffffffff8111156133fe576133fd612ffe565b5b61340a87828801613352565b925092505092959194509250565b5f5f83601f84011261342d5761342c613346565b5b8235905067ffffffffffffffff81111561344a5761344961334a565b5b6020830191508360208202830111156134665761346561334e565b5b9250929050565b5f5f5f6040848603121561348457613483612ffa565b5b5f61349186828701613164565b935050602084013567ffffffffffffffff8111156134b2576134b1612ffe565b5b6134be86828701613418565b92509250509250925092565b5f5f83601f8401126134df576134de613346565b5b8235905067ffffffffffffffff8111156134fc576134fb61334a565b5b6020830191508360018202830111156135185761351761334e565b5b9250929050565b5f5f6020838503121561353557613534612ffa565b5b5f83013567ffffffffffffffff81111561355257613551612ffe565b5b61355e858286016134ca565b92509250509250929050565b5f60208201905061357d5f830184613263565b92915050565b5f6020828403121561359857613597612ffa565b5b5f6135a584828501613211565b91505092915050565b5f5f604083850312156135c4576135c3612ffa565b5b5f6135d185828601613164565b92505060206135e285828601613308565b9150509250929050565b5f610120820190506136005f83018c6131d3565b61360d602083018b613263565b61361a604083018a613263565b6136276060830189613263565b6136346080830188613263565b61364160a0830187613263565b61364e60c0830186613263565b61365b60e0830185613263565b61366961010083018461308d565b9a9950505050505050505050565b5f5f6040838503121561368d5761368c612ffa565b5b5f61369a85828601613211565b92505060206136ab85828601613332565b9150509250929050565b5f5ffd5b7f4e487b71000000000000000000000000000000000000000000000000000000005f52604160045260245ffd5b6136ef826130dd565b810181811067ffffffffffffffff8211171561370e5761370d6136b9565b5b80604052505050565b5f613720612ff1565b905061372c82826136e6565b919050565b5f67ffffffffffffffff82111561374b5761374a6136b9565b5b613754826130dd565b9050602081019050919050565b828183375f83830152505050565b5f61378161377c84613731565b613717565b90508281526020810184848401111561379d5761379c6136b5565b5b6137a8848285613761565b509392505050565b5f82601f8301126137c4576137c3613346565b5b81356137d484826020860161376f565b91505092915050565b5f5f5f5f608085870312156137f5576137f4612ffa565b5b5f61380287828801613211565b945050602061381387828801613211565b935050604061382487828801613164565b925050606085013567ffffffffffffffff81111561384557613844612ffe565b5b613851878288016137b0565b91505092959194509250565b5f5f5f5f6060858703121561387557613874612ffa565b5b5f61388287828801613164565b945050602061389387828801613308565b935050604085013567ffffffffffffffff8111156138b4576138b3612ffe565b5b6138c087828801613352565b925092505092959194509250565b6138d7816132e9565b82525050565b5f6020820190506138f05f8301846138ce565b92915050565b5f5f6040838503121561390c5761390b612ffa565b5b5f61391985828601613211565b925050602061392a85828601613211565b9150509250929050565b5f5f5f5f5f6080868803121561394d5761394c612ffa565b5b5f61395a88828901613164565b955050602061396b88828901613332565b945050604061397c88828901613164565b935050606086013567ffffffffffffffff81111561399d5761399c612ffe565b5b6139a988828901613352565b92509250509295509295909350565b7f4e487b71000000000000000000000000000000000000000000000000000000005f52602260045260245ffd5b5f60028204905060018216806139fc57607f821691505b602082108103613a0f57613a0e6139b8565b5b50919050565b7f4e487b71000000000000000000000000000000000000000000000000000000005f52601160045260245ffd5b5f613a4c82613145565b9150613a5783613145565b9250828201905080821115613a6f57613a6e613a15565b5b92915050565b7f4e6f74206f70657261746f7200000000000000000000000000000000000000005f82015250565b5f613aa9600c836130bf565b9150613ab482613a75565b602082019050919050565b5f6020820190508181035f830152613ad681613a9d565b9050919050565b7f416c726561647920696e616374697665000000000000000000000000000000005f82015250565b5f613b116010836130bf565b9150613b1c82613add565b602082019050919050565b5f6020820190508181035f830152613b3e81613b05565b9050919050565b5f81905092915050565b50565b5f613b5d5f83613b45565b9150613b6882613b4f565b5f82019050919050565b5f613b7c82613b52565b9150819050919050565b5f606082019050613b995f8301866131d3565b613ba66020830185613263565b613bb360408301846131d3565b949350505050565b5f613bc582613145565b91507fffffffffffffffffffffffffffffffffffffffffffffffffffffffffffffffff8203613bf757613bf6613a15565b5b600182019050919050565b5f613c0d83856130bf565b9350613c1a838584613761565b613c23836130dd565b840190509392505050565b5f6020820190508181035f830152613c47818486613c02565b90509392505050565b7f416c7265616479207365740000000000000000000000000000000000000000005f82015250565b5f613c84600b836130bf565b9150613c8f82613c50565b602082019050919050565b5f6020820190508181035f830152613cb181613c78565b9050919050565b7f4e487b71000000000000000000000000000000000000000000000000000000005f52603260045260245ffd5b5f819050919050565b613cff613cfa82613145565b613ce5565b82525050565b5f819050919050565b613d1f613d1a826132e9565b613d05565b82525050565b5f613d308385613b45565b9350613d3d838584613761565b82840190509392505050565b5f613d548288613cee565b602082019150613d648287613d0e565b602082019150613d75828587613d25565b9150613d818284613cee565b6020820191508190509695505050505050565b5f604082019050613da75f830185613263565b613db460208301846138ce565b9392505050565b5f81905092915050565b5f613dcf826130b5565b613dd98185613dbb565b9350613de98185602086016130cf565b80840191505092915050565b5f613e008285613dc5565b9150613e0c8284613dc5565b91508190509392505050565b7f4e487b71000000000000000000000000000000000000000000000000000000005f52601260045260245ffd5b5f613e4f82613145565b9150613e5a83613145565b925082613e6a57613e69613e18565b5b828204905092915050565b5f613e7f82613145565b9150613e8a83613145565b9250828202613e9881613145565b91508282048414831517613eaf57613eae613a15565b5b5092915050565b5f613ec082613145565b9150613ecb83613145565b9250828203905081811115613ee357613ee2613a15565b5b92915050565b5f604082019050613efc5f83018561308d565b613f096020830184613263565b9392505050565b5f819050815f5260205f209050919050565b5f6020601f8301049050919050565b5f82821b905092915050565b5f60088302613f6c7fffffffffffffffffffffffffffffffffffffffffffffffffffffffffffffffff82613f31565b613f768683613f31565b95508019841693508086168417925050509392505050565b5f819050919050565b5f613fb1613fac613fa784613145565b613f8e565b613145565b9050919050565b5f819050919050565b613fca83613f97565b613fde613fd682613fb8565b848454613f3d565b825550505050565b5f5f905090565b613ff5613fe6565b614000818484613fc1565b505050565b5b81811015614023576140185f82613fed565b600181019050614006565b5050565b601f8211156140685761403981613f10565b61404284613f22565b81016020851015614051578190505b61406561405d85613f22565b830182614005565b50505b505050565b5f82821c905092915050565b5f6140885f198460080261406d565b1980831691505092915050565b5f6140a08383614079565b9150826002028217905092915050565b6140b9826130b5565b67ffffffffffffffff8111156140d2576140d16136b9565b5b6140dc82546139e5565b6140e7828285614027565b5f60209050601f831160018114614118575f8415614106578287015190505b6141108582614095565b865550614177565b601f19841661412686613f10565b5f5b8281101561414d57848901518255600182019150602085019450602081019050614128565b8683101561416a5784890151614166601f891682614079565b8355505b6001600288020188555050505b505050505050565b5f81519050919050565b5f82825260208201905092915050565b5f6141a38261417f565b6141ad8185614189565b93506141bd8185602086016130cf565b6141c6816130dd565b840191505092915050565b5f6080820190506141e45f8301876131d3565b6141f160208301866131d3565b6141fe6040830185613263565b81810360608301526142108184614199565b905095945050505050565b5f815190506142298161302d565b92915050565b5f6020828403121561424457614243612ffa565b5b5f6142518482850161421b565b91505092915050565b7f536c617368207472616e73666572206661696c656400000000000000000000005f82015250565b5f61428e6015836130bf565b91506142998261425a565b602082019050919050565b5f6020820190508181035f8301526142bb81614282565b9050919050565b7f526566756e64206661696c6564000000000000000000000000000000000000005f82015250565b5f6142f6600d836130bf565b9150614301826142c2565b602082019050919050565b5f6020820190508181035f830152614323816142ea565b9050919050565b5f60408201905061433d5f8301856131d3565b61434a6020830184613263565b939250505056fea264697066735822122005b206e8547d1ffdf338d51cf9543bdbcf6e9d693b0f16e4283b723dbdcb5cd364736f6c634300081e0033","linkReferences":{}},"methodIdentifiers":{"CLAIM_BOND()":"e2927519","INITIAL_REPUTATION()":"7b057258","MAX_REPUTATION()":"d213c0f2","MIN_STAKE()":"cb1c2b5c","MISS_SLASH_BPS()":"b9e635ef","MISS_WINDOW()":"550b7331","STAKE_PER_CLAIM_SLOT()":"c888ca11","addStake(uint256)":"eb4f16b5","agentData(uint256)":"9a92db91","agentOf(address)":"ac3c0e30","approve(address,uint256)":"095ea7b3","balanceOf(address)":"70a08231","deregister(uint256)":"1a5dbfb4","getAgentURI(uint256)":"ce91aede","getApproved(uint256)":"081812fc","getFeedback(uint256)":"1106a382","hasCapability(uint256,bytes32)":"678d19e7","isApprovedForAll(address,address)":"e985e9c5","maxConcurrentClaims(uint256)":"f0dca0a0","name()":"06fdde03","operatorToId(address)":"841502de","ownerOf(uint256)":"6352211e","postFeedback(uint256,bool,uint256,bytes)":"ff22c701","recordValidation(bytes32,bool,bytes)":"2515ddd2","registerAgent(string)":"2d2a9585","requestValidation(uint256,bytes32,bytes)":"c19c28e1","safeTransferFrom(address,address,uint256)":"42842e0e","safeTransferFrom(address,address,uint256,bytes)":"b88d4fde","setApprovalForAll(address,bool)":"a22cb465","setCapabilities(uint256,bytes32[])":"2ab5c5cc","setVerifier(address)":"5437988d","supportsInterface(bytes4)":"01ffc9a7","symbol()":"95d89b41","tokenURI(uint256)":"c87b56dd","transferFrom(address,address,uint256)":"23b872dd","treasury()":"61d027b3","verifier()":"2b7ac3f3"},"id":42}