{"abi":[{"type":"constructor","inputs":[{"name":"_taskRegistry","type":"address","internalType":"address"},{"name":"_agentRegistry","type":"address","internalType":"address"},{"name":"_mantleAdapter","type":"address","internalType":"address"}],"stateMutability":"nonpayable"},{"type":"function","name":"DISPUTE_WINDOW","inputs":[],"outputs":[{"name":"","type":"uint256","internalType":"uint256"}],"stateMutability":"view"},{"type":"function","name":"agentRegistry","inputs":[],"outputs":[{"name":"","type":"address","internalType":"contract AgentRegistry"}],"stateMutability":"view"},{"type":"function","name":"disputeExecution","inputs":[{"name":"taskId","type":"uint256","internalType":"uint256"}],"outputs":[],"stateMutability":"nonpayable"},{"type":"function","name":"finalizeExecution","inputs":[{"name":"taskId","type":"uint256","internalType":"uint256"}],"outputs":[],"stateMutability":"nonpayable"},{"type":"function","name":"isDisputable","inputs":[{"name":"taskId","type":"uint256","internalType":"uint256"}],"outputs":[{"name":"","type":"bool","internalType":"bool"}],"stateMutability":"view"},{"type":"function","name":"isFinalizable","inputs":[{"name":"taskId","type":"uint256","internalType":"uint256"}],"outputs":[{"name":"","type":"bool","internalType":"bool"}],"stateMutability":"view"},{"type":"function","name":"pending","inputs":[{"name":"taskId","type":"uint256","internalType":"uint256"}],"outputs":[{"name":"proofTxHash","type":"bytes32","internalType":"bytes32"},{"name":"agent","type":"address","internalType":"address"},{"name":"submittedAt","type":"uint256","internalType":"uint256"},{"name":"latencyMs","type":"uint256","internalType":"uint256"},{"name":"finalized","type":"bool","internalType":"bool"},{"name":"disputed","type":"bool","internalType":"bool"}],"stateMutability":"view"},{"type":"function","name":"recordValidation","inputs":[{"name":"requestId","type":"bytes32","internalType":"bytes32"},{"name":"valid","type":"bool","internalType":"bool"},{"name":"","type":"bytes","internalType":"bytes"}],"outputs":[],"stateMutability":"nonpayable"},{"type":"function","name":"requestValidation","inputs":[{"name":"agentId","type":"uint256","internalType":"uint256"},{"name":"taskId","type":"bytes32","internalType":"bytes32"},{"name":"proof","type":"bytes","internalType":"bytes"}],"outputs":[{"name":"requestId","type":"bytes32","internalType":"bytes32"}],"stateMutability":"nonpayable"},{"type":"function","name":"mantleAdapter","inputs":[],"outputs":[{"name":"","type":"address","internalType":"contract MantleAgentsAdapter"}],"stateMutability":"view"},{"type":"function","name":"taskRegistry","inputs":[],"outputs":[{"name":"","type":"address","internalType":"contract TaskRegistry"}],"stateMutability":"view"},{"type":"function","name":"verifyAndSettle","inputs":[{"name":"taskId","type":"uint256","internalType":"uint256"},{"name":"proofTxHash","type":"bytes32","internalType":"bytes32"},{"name":"agent","type":"address","internalType":"address"}],"outputs":[],"stateMutability":"nonpayable"},{"type":"event","name":"DisputeRaised","inputs":[{"name":"taskId","type":"uint256","indexed":true,"internalType":"uint256"},{"name":"challenger","type":"address","indexed":true,"internalType":"address"}],"anonymous":false},{"type":"event","name":"DisputeResolved","inputs":[{"name":"taskId","type":"uint256","indexed":true,"internalType":"uint256"},{"name":"disputeSucceeded","type":"bool","indexed":false,"internalType":"bool"}],"anonymous":false},{"type":"event","name":"ExecutionFinalized","inputs":[{"name":"taskId","type":"uint256","indexed":true,"internalType":"uint256"},{"name":"agent","type":"address","indexed":true,"internalType":"address"}],"anonymous":false},{"type":"event","name":"ProofPending","inputs":[{"name":"taskId","type":"uint256","indexed":true,"internalType":"uint256"},{"name":"agent","type":"address","indexed":true,"internalType":"address"},{"name":"proofTxHash","type":"bytes32","indexed":false,"internalType":"bytes32"},{"name":"disputeDeadline","type":"uint256","indexed":false,"internalType":"uint256"}],"anonymous":false},{"type":"event","name":"ValidationRecorded","inputs":[{"name":"requestId","type":"bytes32","indexed":true,"internalType":"bytes32"},{"name":"valid","type":"bool","indexed":false,"internalType":"bool"}],"anonymous":false},{"type":"event","name":"ValidationRequested","inputs":[{"name":"requestId","type":"bytes32","indexed":true,"internalType":"bytes32"},{"name":"agentId","type":"uint256","indexed":false,"internalType":"uint256"},{"name":"taskId","type":"bytes32","indexed":false,"internalType":"bytes32"}],"anonymous":false},{"type":"error","name":"AlreadySettled","inputs":[]},{"type":"error","name":"DisputeWindowActive","inputs":[]},{"type":"error","name":"DisputeWindowExpired","inputs":[]},{"type":"error","name":"NoPendingSettlement","inputs":[]},{"type":"error","name":"NotPoster","inputs":[]},{"type":"error","name":"NotTaskRegistry","inputs":[]},{"type":"error","name":"TriggerConditionNotMet","inputs":[]}],"bytecode":{"object":"0x60e060405234801561000f575f5ffd5b5060405161205a38038061205a83398181016040528101906100319190610133565b8273ffffffffffffffffffffffffffffffffffffffff1660808173ffffffffffffffffffffffffffffffffffffffff16815250508173ffffffffffffffffffffffffffffffffffffffff1660a08173ffffffffffffffffffffffffffffffffffffffff16815250508073ffffffffffffffffffffffffffffffffffffffff1660c08173ffffffffffffffffffffffffffffffffffffffff1681525050505050610183565b5f5ffd5b5f73ffffffffffffffffffffffffffffffffffffffff82169050919050565b5f610102826100d9565b9050919050565b610112816100f8565b811461011c575f5ffd5b50565b5f8151905061012d81610109565b92915050565b5f5f5f6060848603121561014a576101496100d5565b5b5f6101578682870161011f565b93505060206101688682870161011f565b92505060406101798682870161011f565b9150509250925092565b60805160a05160c051611e606101fa5f395f81816103c30152818161041201528181610fd4015281816111e2015261123301525f8181610265015261066601525f81816102890152818161030f015281816108c701528181610b7201528181610cfd01528181610e3d0152610fb00152611e605ff3fe608060405234801561000f575f5ffd5b50600436106100b2575f3560e01c8063abee34881161006f578063abee348814610162578063af6e623814610180578063b136796f146101b5578063c19c28e1146101e5578063e533cdf514610215578063f585dc5714610245576100b2565b80630d1cfcae146100b657806319a76b7f146100d45780632515ddd2146100f057806338d86bcf1461010c5780634eaeaafa146101285780639e498f1614610144575b5f5ffd5b6100be610263565b6040516100cb919061134b565b60405180910390f35b6100ee60048036038101906100e99190611416565b610287565b005b61010a600480360381019061010591906114fc565b61076f565b005b6101266004803603810190610121919061156d565b6107ad565b005b610142600480360381019061013d919061156d565b610a74565b005b61014c610fae565b60405161015991906115b8565b60405180910390f35b61016a610fd2565b60405161017791906115f1565b60405180910390f35b61019a6004803603810190610195919061156d565b610ff6565b6040516101ac96959493929190611646565b60405180910390f35b6101cf60048036038101906101ca919061156d565b611065565b6040516101dc91906116a5565b60405180910390f35b6101ff60048036038101906101fa91906116be565b6110d9565b60405161020c919061172f565b60405180910390f35b61022f600480360381019061022a919061156d565b61114d565b60405161023c91906116a5565b60405180910390f35b61024d6111c2565b60405161025a9190611748565b60405180910390f35b7f000000000000000000000000000000000000000000000000000000000000000081565b7f000000000000000000000000000000000000000000000000000000000000000073ffffffffffffffffffffffffffffffffffffffff163373ffffffffffffffffffffffffffffffffffffffff161461030c576040517f8790e4e900000000000000000000000000000000000000000000000000000000815260040160405180910390fd5b5f7f000000000000000000000000000000000000000000000000000000000000000073ffffffffffffffffffffffffffffffffffffffff16631d65e77e856040518263ffffffff1660e01b81526004016103669190611748565b5f60405180830381865afa158015610380573d5f5f3e3d5ffd5b505050506040513d5f823e3d601f19601f820116820180604052508101906103a89190611a41565b90505f73ffffffffffffffffffffffffffffffffffffffff167f000000000000000000000000000000000000000000000000000000000000000073ffffffffffffffffffffffffffffffffffffffff161415801561040a57505f816040015151115b156104e7575f7f000000000000000000000000000000000000000000000000000000000000000073ffffffffffffffffffffffffffffffffffffffff16631658af3783604001516040518263ffffffff1660e01b815260040161046d9190611ada565b602060405180830381865afa158015610488573d5f5f3e3d5ffd5b505050506040513d601f19601f820116820180604052508101906104ac9190611b0e565b9050806104e5576040517f735be47c00000000000000000000000000000000000000000000000000000000815260040160405180910390fd5b505b5f6103e8826101200151426104fc9190611b66565b6105069190611b99565b90505f610e10426105179190611bda565b90506040518060c001604052808681526020018573ffffffffffffffffffffffffffffffffffffffff1681526020014281526020018381526020015f151581526020015f15158152505f5f8881526020019081526020015f205f820151815f01556020820151816001015f6101000a81548173ffffffffffffffffffffffffffffffffffffffff021916908373ffffffffffffffffffffffffffffffffffffffff16021790555060408201518160020155606082015181600301556080820151816004015f6101000a81548160ff02191690831515021790555060a08201518160040160016101000a81548160ff0219169083151502179055509050505f86868660405160200161062a93929190611c92565b604051602081830303815290604052805190602001209050807f0382e3cde104372cc2869ad0cfa84af225aaac5cba0d3dcdce08c848b21de3e37f000000000000000000000000000000000000000000000000000000000000000073ffffffffffffffffffffffffffffffffffffffff1663ac3c0e30886040518263ffffffff1660e01b81526004016106bd9190611cce565b602060405180830381865afa1580156106d8573d5f5f3e3d5ffd5b505050506040513d601f19601f820116820180604052508101906106fc9190611ce7565b895f1b60405161070d929190611d12565b60405180910390a28473ffffffffffffffffffffffffffffffffffffffff16877f29ade195c1c1bca157b5461d6cab418cfe0fc29981167cd2b04b00e8a0046764888560405161075e929190611d39565b60405180910390a350505050505050565b837f466d91783b06f98eb155ed1db286b1fe0d36328a5ca84b786befbf314d86be178460405161079f91906116a5565b60405180910390a250505050565b5f5f5f8381526020019081526020015f2090505f8160020154036107fd576040517f851ff18b00000000000000000000000000000000000000000000000000000000815260040160405180910390fd5b806004015f9054906101000a900460ff168061082757508060040160019054906101000a900460ff165b1561085e576040517f560ff90000000000000000000000000000000000000000000000000000000000815260040160405180910390fd5b610e1081600201546108709190611bda565b4210156108a9576040517fe52e798f00000000000000000000000000000000000000000000000000000000815260040160405180910390fd5b6001816004015f6101000a81548160ff0219169083151502179055507f000000000000000000000000000000000000000000000000000000000000000073ffffffffffffffffffffffffffffffffffffffff16637c0e906483835f0154846001015f9054906101000a900473ffffffffffffffffffffffffffffffffffffffff1685600301546040518563ffffffff1660e01b815260040161094e9493929190611d60565b5f604051808303815f87803b158015610965575f5ffd5b505af1158015610977573d5f5f3e3d5ffd5b505050505f82825f0154836001015f9054906101000a900473ffffffffffffffffffffffffffffffffffffffff166040516020016109b793929190611c92565b604051602081830303815290604052805190602001209050807f466d91783b06f98eb155ed1db286b1fe0d36328a5ca84b786befbf314d86be176001604051610a0091906116a5565b60405180910390a2816001015f9054906101000a900473ffffffffffffffffffffffffffffffffffffffff1673ffffffffffffffffffffffffffffffffffffffff16837f915ca2223901776a0271cba02c632016ae5f264ae48136a29e7fc055874f1a2760405160405180910390a3505050565b5f5f5f8381526020019081526020015f2090505f816002015403610ac4576040517f851ff18b00000000000000000000000000000000000000000000000000000000815260040160405180910390fd5b806004015f9054906101000a900460ff1680610aee57508060040160019054906101000a900460ff165b15610b25576040517f560ff90000000000000000000000000000000000000000000000000000000000815260040160405180910390fd5b610e108160020154610b379190611bda565b4210610b6f576040517f8d303ff400000000000000000000000000000000000000000000000000000000815260040160405180910390fd5b5f7f000000000000000000000000000000000000000000000000000000000000000073ffffffffffffffffffffffffffffffffffffffff16631d65e77e846040518263ffffffff1660e01b8152600401610bc99190611748565b5f60405180830381865afa158015610be3573d5f5f3e3d5ffd5b505050506040513d5f823e3d601f19601f82011682018060405250810190610c0b9190611a41565b9050805f015173ffffffffffffffffffffffffffffffffffffffff163373ffffffffffffffffffffffffffffffffffffffff1614610c75576040517f1dba048e00000000000000000000000000000000000000000000000000000000815260040160405180910390fd5b5f610c8382604001516111c8565b905060018360040160016101000a81548160ff0219169083151502179055505f84845f0154856001015f9054906101000a900473ffffffffffffffffffffffffffffffffffffffff16604051602001610cde93929190611c92565b60405160208183030381529060405280519060200120905081610e3b577f000000000000000000000000000000000000000000000000000000000000000073ffffffffffffffffffffffffffffffffffffffff16635a763aa2866040518263ffffffff1660e01b8152600401610d549190611748565b5f604051808303815f87803b158015610d6b575f5ffd5b505af1158015610d7d573d5f5f3e3d5ffd5b50505050807f466d91783b06f98eb155ed1db286b1fe0d36328a5ca84b786befbf314d86be175f604051610db191906116a5565b60405180910390a23373ffffffffffffffffffffffffffffffffffffffff16857f84a477df8a28a4276ca6dee4458a06c3015f30c477d9c949ede4e13ff8a552b460405160405180910390a3847f5a87909bff68caaaaf0b3fd9c74eeccc928832f879315e5c6fb7a73612f26c0c6001604051610e2e91906116a5565b60405180910390a2610fa7565b7f000000000000000000000000000000000000000000000000000000000000000073ffffffffffffffffffffffffffffffffffffffff16637c0e906486865f0154876001015f9054906101000a900473ffffffffffffffffffffffffffffffffffffffff1688600301546040518563ffffffff1660e01b8152600401610ec49493929190611d60565b5f604051808303815f87803b158015610edb575f5ffd5b505af1158015610eed573d5f5f3e3d5ffd5b50505050807f466d91783b06f98eb155ed1db286b1fe0d36328a5ca84b786befbf314d86be176001604051610f2291906116a5565b60405180910390a23373ffffffffffffffffffffffffffffffffffffffff16857f84a477df8a28a4276ca6dee4458a06c3015f30c477d9c949ede4e13ff8a552b460405160405180910390a3847f5a87909bff68caaaaf0b3fd9c74eeccc928832f879315e5c6fb7a73612f26c0c5f604051610f9e91906116a5565b60405180910390a25b5050505050565b7f000000000000000000000000000000000000000000000000000000000000000081565b7f000000000000000000000000000000000000000000000000000000000000000081565b5f602052805f5260405f205f91509050805f015490806001015f9054906101000a900473ffffffffffffffffffffffffffffffffffffffff1690806002015490806003015490806004015f9054906101000a900460ff16908060040160019054906101000a900460ff16905086565b5f5f5f5f8481526020019081526020015f2090505f816002015411801561109a5750806004015f9054906101000a900460ff16155b80156110b557508060040160019054906101000a900460ff16155b80156110d15750610e1081600201546110ce9190611bda565b42105b915050919050565b5f84848484426040516020016110f3959493929190611ddf565b604051602081830303815290604052805190602001209050807f0382e3cde104372cc2869ad0cfa84af225aaac5cba0d3dcdce08c848b21de3e3868660405161113d929190611d12565b60405180910390a2949350505050565b5f5f5f5f8481526020019081526020015f2090505f81600201541180156111825750806004015f9054906101000a900460ff16155b801561119d57508060040160019054906101000a900460ff16155b80156111ba5750610e1081600201546111b69190611bda565b4210155b915050919050565b610e1081565b5f5f73ffffffffffffffffffffffffffffffffffffffff167f000000000000000000000000000000000000000000000000000000000000000073ffffffffffffffffffffffffffffffffffffffff16148061122357505f8251145b1561123157600190506112cc565b7f000000000000000000000000000000000000000000000000000000000000000073ffffffffffffffffffffffffffffffffffffffff16631658af37836040518263ffffffff1660e01b815260040161128a9190611ada565b602060405180830381865afa1580156112a5573d5f5f3e3d5ffd5b505050506040513d601f19601f820116820180604052508101906112c99190611b0e565b90505b919050565b5f73ffffffffffffffffffffffffffffffffffffffff82169050919050565b5f819050919050565b5f61131361130e611309846112d1565b6112f0565b6112d1565b9050919050565b5f611324826112f9565b9050919050565b5f6113358261131a565b9050919050565b6113458161132b565b82525050565b5f60208201905061135e5f83018461133c565b92915050565b5f604051905090565b5f5ffd5b5f5ffd5b5f819050919050565b61138781611375565b8114611391575f5ffd5b50565b5f813590506113a28161137e565b92915050565b5f819050919050565b6113ba816113a8565b81146113c4575f5ffd5b50565b5f813590506113d5816113b1565b92915050565b5f6113e5826112d1565b9050919050565b6113f5816113db565b81146113ff575f5ffd5b50565b5f81359050611410816113ec565b92915050565b5f5f5f6060848603121561142d5761142c61136d565b5b5f61143a86828701611394565b935050602061144b868287016113c7565b925050604061145c86828701611402565b9150509250925092565b5f8115159050919050565b61147a81611466565b8114611484575f5ffd5b50565b5f8135905061149581611471565b92915050565b5f5ffd5b5f5ffd5b5f5ffd5b5f5f83601f8401126114bc576114bb61149b565b5b8235905067ffffffffffffffff8111156114d9576114d861149f565b5b6020830191508360018202830111156114f5576114f46114a3565b5b9250929050565b5f5f5f5f606085870312156115145761151361136d565b5b5f611521878288016113c7565b945050602061153287828801611487565b935050604085013567ffffffffffffffff81111561155357611552611371565b5b61155f878288016114a7565b925092505092959194509250565b5f602082840312156115825761158161136d565b5b5f61158f84828501611394565b91505092915050565b5f6115a28261131a565b9050919050565b6115b281611598565b82525050565b5f6020820190506115cb5f8301846115a9565b92915050565b5f6115db8261131a565b9050919050565b6115eb816115d1565b82525050565b5f6020820190506116045f8301846115e2565b92915050565b611613816113a8565b82525050565b611622816113db565b82525050565b61163181611375565b82525050565b61164081611466565b82525050565b5f60c0820190506116595f83018961160a565b6116666020830188611619565b6116736040830187611628565b6116806060830186611628565b61168d6080830185611637565b61169a60a0830184611637565b979650505050505050565b5f6020820190506116b85f830184611637565b92915050565b5f5f5f5f606085870312156116d6576116d561136d565b5b5f6116e387828801611394565b94505060206116f4878288016113c7565b935050604085013567ffffffffffffffff81111561171557611714611371565b5b611721878288016114a7565b925092505092959194509250565b5f6020820190506117425f83018461160a565b92915050565b5f60208201905061175b5f830184611628565b92915050565b5f5ffd5b5f601f19601f8301169050919050565b7f4e487b71000000000000000000000000000000000000000000000000000000005f52604160045260245ffd5b6117ab82611765565b810181811067ffffffffffffffff821117156117ca576117c9611775565b5b80604052505050565b5f6117dc611364565b90506117e882826117a2565b919050565b5f5ffd5b5f815190506117ff816113ec565b92915050565b5f81519050611813816113b1565b92915050565b5f5ffd5b5f67ffffffffffffffff82111561183757611836611775565b5b61184082611765565b9050602081019050919050565b8281835e5f83830152505050565b5f61186d6118688461181d565b6117d3565b90508281526020810184848401111561188957611888611819565b5b61189484828561184d565b509392505050565b5f82601f8301126118b0576118af61149b565b5b81516118c084826020860161185b565b91505092915050565b5f815190506118d78161137e565b92915050565b600581106118e9575f5ffd5b50565b5f815190506118fa816118dd565b92915050565b5f610160828403121561191657611915611761565b5b6119216101606117d3565b90505f611930848285016117f1565b5f83015250602061194384828501611805565b602083015250604082015167ffffffffffffffff811115611967576119666117ed565b5b6119738482850161189c565b604083015250606082015167ffffffffffffffff811115611997576119966117ed565b5b6119a38482850161189c565b60608301525060806119b7848285016118c9565b60808301525060a06119cb848285016118c9565b60a08301525060c06119df848285016118c9565b60c08301525060e06119f3848285016118ec565b60e083015250610100611a08848285016117f1565b61010083015250610120611a1e848285016118c9565b61012083015250610140611a34848285016118c9565b6101408301525092915050565b5f60208284031215611a5657611a5561136d565b5b5f82015167ffffffffffffffff811115611a7357611a72611371565b5b611a7f84828501611900565b91505092915050565b5f81519050919050565b5f82825260208201905092915050565b5f611aac82611a88565b611ab68185611a92565b9350611ac681856020860161184d565b611acf81611765565b840191505092915050565b5f6020820190508181035f830152611af28184611aa2565b905092915050565b5f81519050611b0881611471565b92915050565b5f60208284031215611b2357611b2261136d565b5b5f611b3084828501611afa565b91505092915050565b7f4e487b71000000000000000000000000000000000000000000000000000000005f52601160045260245ffd5b5f611b7082611375565b9150611b7b83611375565b9250828203905081811115611b9357611b92611b39565b5b92915050565b5f611ba382611375565b9150611bae83611375565b9250828202611bbc81611375565b91508282048414831517611bd357611bd2611b39565b5b5092915050565b5f611be482611375565b9150611bef83611375565b9250828201905080821115611c0757611c06611b39565b5b92915050565b5f819050919050565b611c27611c2282611375565b611c0d565b82525050565b5f819050919050565b611c47611c42826113a8565b611c2d565b82525050565b5f8160601b9050919050565b5f611c6382611c4d565b9050919050565b5f611c7482611c59565b9050919050565b611c8c611c87826113db565b611c6a565b82525050565b5f611c9d8286611c16565b602082019150611cad8285611c36565b602082019150611cbd8284611c7b565b601482019150819050949350505050565b5f602082019050611ce15f830184611619565b92915050565b5f60208284031215611cfc57611cfb61136d565b5b5f611d09848285016118c9565b91505092915050565b5f604082019050611d255f830185611628565b611d32602083018461160a565b9392505050565b5f604082019050611d4c5f83018561160a565b611d596020830184611628565b9392505050565b5f608082019050611d735f830187611628565b611d80602083018661160a565b611d8d6040830185611619565b611d9a6060830184611628565b95945050505050565b5f81905092915050565b828183375f83830152505050565b5f611dc68385611da3565b9350611dd3838584611dad565b82840190509392505050565b5f611dea8288611c16565b602082019150611dfa8287611c36565b602082019150611e0b828587611dbb565b9150611e178284611c16565b602082019150819050969550505050505056fea2646970667358221220d43efac28f0108338f916f0d73335c8cdaef644b53b54cf125aab4503e6f03ca64736f6c634300081e0033","linkReferences":{}},"methodIdentifiers":{"DISPUTE_WINDOW()":"f585dc57","agentRegistry()":"0d1cfcae","disputeExecution(uint256)":"4eaeaafa","finalizeExecution(uint256)":"38d86bcf","isDisputable(uint256)":"b136796f","isFinalizable(uint256)":"e533cdf5","pending(uint256)":"af6e6238","recordValidation(bytes32,bool,bytes)":"2515ddd2","requestValidation(uint256,bytes32,bytes)":"c19c28e1","mantleAdapter()":"abee3488","taskRegistry()":"9e498f16","verifyAndSettle(uint256,bytes32,address)":"19a76b7f"},"id":44}