{"abi":[{"type":"constructor","inputs":[{"name":"_agentRegistry","type":"address","internalType":"address"},{"name":"_bountyEscrow","type":"address","internalType":"address"},{"name":"_treasury","type":"address","internalType":"address"}],"stateMutability":"nonpayable"},{"type":"function","name":"CLAIM_BOND","inputs":[],"outputs":[{"name":"","type":"uint256","internalType":"uint256"}],"stateMutability":"view"},{"type":"function","name":"DEFAULT_CLAIM_WINDOW","inputs":[],"outputs":[{"name":"","type":"uint256","internalType":"uint256"}],"stateMutability":"view"},{"type":"function","name":"LISTING_FEE","inputs":[],"outputs":[{"name":"","type":"uint256","internalType":"uint256"}],"stateMutability":"view"},{"type":"function","name":"MIN_BOUNTY","inputs":[],"outputs":[{"name":"","type":"uint256","internalType":"uint256"}],"stateMutability":"view"},{"type":"function","name":"activeClaims","inputs":[{"name":"agentId","type":"uint256","internalType":"uint256"}],"outputs":[{"name":"count","type":"uint256","internalType":"uint256"}],"stateMutability":"view"},{"type":"function","name":"agentRegistry","inputs":[],"outputs":[{"name":"","type":"address","internalType":"contract AgentRegistry"}],"stateMutability":"view"},{"type":"function","name":"bountyEscrow","inputs":[],"outputs":[{"name":"","type":"address","internalType":"contract BountyEscrow"}],"stateMutability":"view"},{"type":"function","name":"claimTask","inputs":[{"name":"taskId","type":"uint256","internalType":"uint256"}],"outputs":[],"stateMutability":"payable"},{"type":"function","name":"executionVerifier","inputs":[],"outputs":[{"name":"","type":"address","internalType":"address"}],"stateMutability":"view"},{"type":"function","name":"expireTask","inputs":[{"name":"taskId","type":"uint256","internalType":"uint256"}],"outputs":[],"stateMutability":"nonpayable"},{"type":"function","name":"getTask","inputs":[{"name":"taskId","type":"uint256","internalType":"uint256"}],"outputs":[{"name":"","type":"tuple","internalType":"struct TaskRegistry.Task","components":[{"name":"poster","type":"address","internalType":"address"},{"name":"capabilityTag","type":"bytes32","internalType":"bytes32"},{"name":"triggerCondition","type":"bytes","internalType":"bytes"},{"name":"targetAction","type":"bytes","internalType":"bytes"},{"name":"bounty","type":"uint256","internalType":"uint256"},{"name":"expiry","type":"uint256","internalType":"uint256"},{"name":"minAgentReputation","type":"uint256","internalType":"uint256"},{"name":"status","type":"uint8","internalType":"enum TaskRegistry.TaskStatus"},{"name":"claimedBy","type":"address","internalType":"address"},{"name":"claimedAt","type":"uint256","internalType":"uint256"},{"name":"claimWindowSeconds","type":"uint256","internalType":"uint256"}]}],"stateMutability":"view"},{"type":"function","name":"postTask","inputs":[{"name":"capabilityTag","type":"bytes32","internalType":"bytes32"},{"name":"triggerCondition","type":"bytes","internalType":"bytes"},{"name":"targetAction","type":"bytes","internalType":"bytes"},{"name":"minAgentReputation","type":"uint256","internalType":"uint256"},{"name":"expiry","type":"uint256","internalType":"uint256"},{"name":"claimWindowSeconds","type":"uint256","internalType":"uint256"}],"outputs":[{"name":"taskId","type":"uint256","internalType":"uint256"}],"stateMutability":"payable"},{"type":"function","name":"setExecutionVerifier","inputs":[{"name":"_verifier","type":"address","internalType":"address"}],"outputs":[],"stateMutability":"nonpayable"},{"type":"function","name":"settleDisputed","inputs":[{"name":"taskId","type":"uint256","internalType":"uint256"}],"outputs":[],"stateMutability":"nonpayable"},{"type":"function","name":"settleVerified","inputs":[{"name":"taskId","type":"uint256","internalType":"uint256"},{"name":"proofTxHash","type":"bytes32","internalType":"bytes32"},{"name":"agent","type":"address","internalType":"address"},{"name":"latencyMs","type":"uint256","internalType":"uint256"}],"outputs":[],"stateMutability":"nonpayable"},{"type":"function","name":"submitProof","inputs":[{"name":"taskId","type":"uint256","internalType":"uint256"},{"name":"proofTxHash","type":"bytes32","internalType":"bytes32"}],"outputs":[],"stateMutability":"nonpayable"},{"type":"function","name":"taskCount","inputs":[],"outputs":[{"name":"","type":"uint256","internalType":"uint256"}],"stateMutability":"view"},{"type":"function","name":"treasury","inputs":[],"outputs":[{"name":"","type":"address","internalType":"address"}],"stateMutability":"view"},{"type":"event","name":"TaskClaimed","inputs":[{"name":"taskId","type":"uint256","indexed":true,"internalType":"uint256"},{"name":"agent","type":"address","indexed":true,"internalType":"address"},{"name":"claimBond","type":"uint256","indexed":false,"internalType":"uint256"}],"anonymous":false},{"type":"event","name":"TaskDisputed","inputs":[{"name":"taskId","type":"uint256","indexed":true,"internalType":"uint256"},{"name":"challenger","type":"address","indexed":true,"internalType":"address"}],"anonymous":false},{"type":"event","name":"TaskExecuted","inputs":[{"name":"taskId","type":"uint256","indexed":true,"internalType":"uint256"},{"name":"agent","type":"address","indexed":true,"internalType":"address"},{"name":"proofHash","type":"bytes32","indexed":false,"internalType":"bytes32"},{"name":"latencyMs","type":"uint256","indexed":false,"internalType":"uint256"}],"anonymous":false},{"type":"event","name":"TaskExpired","inputs":[{"name":"taskId","type":"uint256","indexed":true,"internalType":"uint256"},{"name":"bondForfeited","type":"bool","indexed":false,"internalType":"bool"}],"anonymous":false},{"type":"event","name":"TaskPosted","inputs":[{"name":"taskId","type":"uint256","indexed":true,"internalType":"uint256"},{"name":"capabilityTag","type":"bytes32","indexed":true,"internalType":"bytes32"},{"name":"bounty","type":"uint256","indexed":false,"internalType":"uint256"},{"name":"expiry","type":"uint256","indexed":false,"internalType":"uint256"}],"anonymous":false},{"type":"error","name":"AgentNotRegistered","inputs":[]},{"type":"error","name":"CannotExpire","inputs":[]},{"type":"error","name":"ClaimLimitReached","inputs":[]},{"type":"error","name":"ClaimWindowActive","inputs":[]},{"type":"error","name":"ClaimWindowExpired","inputs":[]},{"type":"error","name":"InsufficientReputation","inputs":[]},{"type":"error","name":"InsufficientValue","inputs":[]},{"type":"error","name":"InvalidExpiry","inputs":[]},{"type":"error","name":"NotClaimer","inputs":[]},{"type":"error","name":"NotExecutionVerifier","inputs":[]},{"type":"error","name":"ReentrancyGuardReentrantCall","inputs":[]},{"type":"error","name":"TaskAlreadyExpired","inputs":[]},{"type":"error","name":"TaskNotClaimed","inputs":[]},{"type":"error","name":"TaskNotFound","inputs":[]},{"type":"error","name":"TaskNotOpen","inputs":[]},{"type":"error","name":"WrongClaimBond","inputs":[]}],"bytecode":{"object":"0x60e060405234801561000f575f5ffd5b506040516133f23803806133f283398181016040528101906100319190610189565b600161004f6100446100f960201b60201c565b61012260201b60201c565b5f01819055508273ffffffffffffffffffffffffffffffffffffffff1660808173ffffffffffffffffffffffffffffffffffffffff16815250508173ffffffffffffffffffffffffffffffffffffffff1660a08173ffffffffffffffffffffffffffffffffffffffff16815250508073ffffffffffffffffffffffffffffffffffffffff1660c08173ffffffffffffffffffffffffffffffffffffffff16815250505050506101d9565b5f7f9b779b17422d0df92223018b32b4d1fa46e071723d6817e2486d003becc55f005f1b905090565b5f819050919050565b5f5ffd5b5f73ffffffffffffffffffffffffffffffffffffffff82169050919050565b5f6101588261012f565b9050919050565b6101688161014e565b8114610172575f5ffd5b50565b5f815190506101838161015f565b92915050565b5f5f5f606084860312156101a05761019f61012b565b5b5f6101ad86828701610175565b93505060206101be86828701610175565b92505060406101cf86828701610175565b9150509250925092565b60805160a05160c05161317861027a5f395f8181610dc50152611d1601525f8181610b9801528181610c1e015281816110f901528181611262015281816114300152818161190b01528181611de301526120e001525f818161041401528181610ab401528181610cc801528181610f1401528181610ff8015281816115e0015281816116b40152818161178c01528181612020015261216801526131785ff3fe608060405260043610610108575f3560e01c806362ecc47a11610094578063b6cb58a511610063578063b6cb58a51461033c578063c97a034c14610366578063d22cba5214610396578063e2927519146103be578063fc410773146103e857610108565b806362ecc47a146102a65780637c0e9064146102ce5780637d4ddcd3146102f65780638dd334951461032057610108565b80632f19c56a116100db5780632f19c56a146101c65780634afe6806146101ee5780634e333b251461022a5780635a763aa21461025457806361d027b31461027c57610108565b80630d1cfcae1461010c5780631307e576146101365780631d65e77e146101605780632b86ae381461019c575b5f5ffd5b348015610117575f5ffd5b50610120610412565b60405161012d91906123fc565b60405180910390f35b348015610141575f5ffd5b5061014a610436565b604051610157919061242d565b60405180910390f35b34801561016b575f5ffd5b5061018660048036038101906101819190612478565b610441565b60405161019391906126c0565b60405180910390f35b3480156101a7575f5ffd5b506101b0610742565b6040516101bd919061242d565b60405180910390f35b3480156101d1575f5ffd5b506101ec60048036038101906101e7919061270a565b61074c565b005b3480156101f9575f5ffd5b50610214600480360381019061020f9190612478565b6109ca565b604051610221919061242d565b60405180910390f35b348015610235575f5ffd5b5061023e6109df565b60405161024b919061242d565b60405180910390f35b34801561025f575f5ffd5b5061027a60048036038101906102759190612478565b6109e4565b005b348015610287575f5ffd5b50610290610dc3565b60405161029d9190612757565b60405180910390f35b3480156102b1575f5ffd5b506102cc60048036038101906102c79190612478565b610de7565b005b3480156102d9575f5ffd5b506102f460048036038101906102ef919061279a565b611386565b005b348015610301575f5ffd5b5061030a61142e565b604051610317919061281e565b60405180910390f35b61033a60048036038101906103359190612478565b611452565b005b348015610347575f5ffd5b506103506119f0565b60405161035d919061242d565b60405180910390f35b610380600480360381019061037b9190612898565b6119f9565b60405161038d919061242d565b60405180910390f35b3480156103a1575f5ffd5b506103bc60048036038101906103b79190612962565b611ebb565b005b3480156103c9575f5ffd5b506103d2611f8d565b6040516103df919061242d565b60405180910390f35b3480156103f3575f5ffd5b506103fc611f97565b6040516104099190612757565b60405180910390f35b7f000000000000000000000000000000000000000000000000000000000000000081565b66038d7ea4c6800081565b6104496122f3565b5f73ffffffffffffffffffffffffffffffffffffffff165f5f8481526020019081526020015f205f015f9054906101000a900473ffffffffffffffffffffffffffffffffffffffff1673ffffffffffffffffffffffffffffffffffffffff16036104df576040517fc325ae3300000000000000000000000000000000000000000000000000000000815260040160405180910390fd5b5f5f8381526020019081526020015f20604051806101600160405290815f82015f9054906101000a900473ffffffffffffffffffffffffffffffffffffffff1673ffffffffffffffffffffffffffffffffffffffff1673ffffffffffffffffffffffffffffffffffffffff16815260200160018201548152602001600282018054610569906129ba565b80601f0160208091040260200160405190810160405280929190818152602001828054610595906129ba565b80156105e05780601f106105b7576101008083540402835291602001916105e0565b820191905f5260205f20905b8154815290600101906020018083116105c357829003601f168201915b505050505081526020016003820180546105f9906129ba565b80601f0160208091040260200160405190810160405280929190818152602001828054610625906129ba565b80156106705780601f1061064757610100808354040283529160200191610670565b820191905f5260205f20905b81548152906001019060200180831161065357829003601f168201915b50505050508152602001600482015481526020016005820154815260200160068201548152602001600782015f9054906101000a900460ff1660048111156106bb576106ba61255a565b5b60048111156106cd576106cc61255a565b5b81526020016007820160019054906101000a900473ffffffffffffffffffffffffffffffffffffffff1673ffffffffffffffffffffffffffffffffffffffff1673ffffffffffffffffffffffffffffffffffffffff168152602001600882015481526020016009820154815250509050919050565b655af3107a400081565b610754611fbc565b5f5f5f8481526020019081526020015f2090506001600481111561077b5761077a61255a565b5b816007015f9054906101000a900460ff16600481111561079e5761079d61255a565b5b146107d5576040517fabbfac0d00000000000000000000000000000000000000000000000000000000815260040160405180910390fd5b3373ffffffffffffffffffffffffffffffffffffffff168160070160019054906101000a900473ffffffffffffffffffffffffffffffffffffffff1673ffffffffffffffffffffffffffffffffffffffff161461085e576040517f9553066800000000000000000000000000000000000000000000000000000000815260040160405180910390fd5b806009015481600801546108729190612a17565b4211156108ab576040517f1b8709b700000000000000000000000000000000000000000000000000000000815260040160405180910390fd5b5f73ffffffffffffffffffffffffffffffffffffffff1660035f9054906101000a900473ffffffffffffffffffffffffffffffffffffffff1673ffffffffffffffffffffffffffffffffffffffff161461098f5760035f9054906101000a900473ffffffffffffffffffffffffffffffffffffffff1673ffffffffffffffffffffffffffffffffffffffff166319a76b7f8484336040518463ffffffff1660e01b815260040161095d93929190612a59565b5f604051808303815f87803b158015610974575f5ffd5b505af1158015610986573d5f5f3e3d5ffd5b505050506109bd565b5f6103e88260080154426109a39190612a8e565b6109ad9190612ac1565b90506109bb84843384611fde565b505b506109c661224a565b5050565b6001602052805f5260405f205f915090505481565b603c81565b6109ec611fbc565b60035f9054906101000a900473ffffffffffffffffffffffffffffffffffffffff1673ffffffffffffffffffffffffffffffffffffffff163373ffffffffffffffffffffffffffffffffffffffff1614610a72576040517fd90bc1ee00000000000000000000000000000000000000000000000000000000815260040160405180910390fd5b5f5f5f8381526020019081526020015f2090506004816007015f6101000a81548160ff02191690836004811115610aac57610aab61255a565b5b02179055505f7f000000000000000000000000000000000000000000000000000000000000000073ffffffffffffffffffffffffffffffffffffffff1663ac3c0e308360070160019054906101000a900473ffffffffffffffffffffffffffffffffffffffff166040518263ffffffff1660e01b8152600401610b2f9190612757565b602060405180830381865afa158015610b4a573d5f5f3e3d5ffd5b505050506040513d601f19601f82011682018060405250810190610b6e9190612b16565b905060015f8281526020019081526020015f205f815480929190610b9190612b41565b91905055507f000000000000000000000000000000000000000000000000000000000000000073ffffffffffffffffffffffffffffffffffffffff1663ef4c02a6846040518263ffffffff1660e01b8152600401610bef919061242d565b5f604051808303815f87803b158015610c06575f5ffd5b505af1158015610c18573d5f5f3e3d5ffd5b505050507f000000000000000000000000000000000000000000000000000000000000000073ffffffffffffffffffffffffffffffffffffffff16639b30e1d384845f015f9054906101000a900473ffffffffffffffffffffffffffffffffffffffff166040518363ffffffff1660e01b8152600401610c99929190612b68565b5f604051808303815f87803b158015610cb0575f5ffd5b505af1158015610cc2573d5f5f3e3d5ffd5b505050507f000000000000000000000000000000000000000000000000000000000000000073ffffffffffffffffffffffffffffffffffffffff1663ff22c701825f5f6040518463ffffffff1660e01b8152600401610d2393929190612c15565b5f604051808303815f87803b158015610d3a575f5ffd5b505af1158015610d4c573d5f5f3e3d5ffd5b50505050815f015f9054906101000a900473ffffffffffffffffffffffffffffffffffffffff1673ffffffffffffffffffffffffffffffffffffffff16837f4c876e9aba8144edd2840298ef3fd0d8735009124d7a0185a41b12680c09378260405160405180910390a35050610dc061224a565b50565b7f000000000000000000000000000000000000000000000000000000000000000081565b610def611fbc565b5f5f5f8381526020019081526020015f2090505f73ffffffffffffffffffffffffffffffffffffffff16815f015f9054906101000a900473ffffffffffffffffffffffffffffffffffffffff1673ffffffffffffffffffffffffffffffffffffffff1603610e89576040517fc325ae3300000000000000000000000000000000000000000000000000000000815260040160405180910390fd5b60016004811115610e9d57610e9c61255a565b5b816007015f9054906101000a900460ff166004811115610ec057610ebf61255a565b5b036111bc5780600901548160080154610ed99190612a17565b4211610f11576040517f9938be4400000000000000000000000000000000000000000000000000000000815260040160405180910390fd5b5f7f000000000000000000000000000000000000000000000000000000000000000073ffffffffffffffffffffffffffffffffffffffff1663ac3c0e308360070160019054906101000a900473ffffffffffffffffffffffffffffffffffffffff166040518263ffffffff1660e01b8152600401610f8f9190612757565b602060405180830381865afa158015610faa573d5f5f3e3d5ffd5b505050506040513d601f19601f82011682018060405250810190610fce9190612b16565b905060015f8281526020019081526020015f205f815480929190610ff190612b41565b91905055507f000000000000000000000000000000000000000000000000000000000000000073ffffffffffffffffffffffffffffffffffffffff1663ff22c701825f5f6040518463ffffffff1660e01b815260040161105393929190612c15565b5f604051808303815f87803b15801561106a575f5ffd5b505af115801561107c573d5f5f3e3d5ffd5b505050505f826007015f6101000a81548160ff021916908360048111156110a6576110a561255a565b5b02179055505f8260070160016101000a81548173ffffffffffffffffffffffffffffffffffffffff021916908373ffffffffffffffffffffffffffffffffffffffff1602179055505f82600801819055507f000000000000000000000000000000000000000000000000000000000000000073ffffffffffffffffffffffffffffffffffffffff1663ef4c02a6846040518263ffffffff1660e01b8152600401611150919061242d565b5f604051808303815f87803b158015611167575f5ffd5b505af1158015611179573d5f5f3e3d5ffd5b50505050827f3fc006bc713978783e18f6e4236c47458036bfe5878555dc7c2df077f4839c3760016040516111ae9190612c5d565b60405180910390a25061137a565b5f60048111156111cf576111ce61255a565b5b816007015f9054906101000a900460ff1660048111156111f2576111f161255a565b5b036113475780600501544211611234576040517faa98a45e00000000000000000000000000000000000000000000000000000000815260040160405180910390fd5b6003816007015f6101000a81548160ff0219169083600481111561125b5761125a61255a565b5b02179055507f000000000000000000000000000000000000000000000000000000000000000073ffffffffffffffffffffffffffffffffffffffff16639b30e1d383835f015f9054906101000a900473ffffffffffffffffffffffffffffffffffffffff166040518363ffffffff1660e01b81526004016112dd929190612b68565b5f604051808303815f87803b1580156112f4575f5ffd5b505af1158015611306573d5f5f3e3d5ffd5b50505050817f3fc006bc713978783e18f6e4236c47458036bfe5878555dc7c2df077f4839c375f60405161133a9190612c5d565b60405180910390a2611379565b6040517faa98a45e00000000000000000000000000000000000000000000000000000000815260040160405180910390fd5b5b5061138361224a565b50565b61138e611fbc565b60035f9054906101000a900473ffffffffffffffffffffffffffffffffffffffff1673ffffffffffffffffffffffffffffffffffffffff163373ffffffffffffffffffffffffffffffffffffffff1614611414576040517fd90bc1ee00000000000000000000000000000000000000000000000000000000815260040160405180910390fd5b61142084848484611fde565b61142861224a565b50505050565b7f000000000000000000000000000000000000000000000000000000000000000081565b61145a611fbc565b5f5f5f8381526020019081526020015f2090505f73ffffffffffffffffffffffffffffffffffffffff16815f015f9054906101000a900473ffffffffffffffffffffffffffffffffffffffff1673ffffffffffffffffffffffffffffffffffffffff16036114f4576040517fc325ae3300000000000000000000000000000000000000000000000000000000815260040160405180910390fd5b5f60048111156115075761150661255a565b5b816007015f9054906101000a900460ff16600481111561152a5761152961255a565b5b14611561576040517ffe89421700000000000000000000000000000000000000000000000000000000815260040160405180910390fd5b8060050154421061159e576040517fb368bc2500000000000000000000000000000000000000000000000000000000815260040160405180910390fd5b655af3107a400034146115dd576040517ffd41e13a00000000000000000000000000000000000000000000000000000000815260040160405180910390fd5b5f7f000000000000000000000000000000000000000000000000000000000000000073ffffffffffffffffffffffffffffffffffffffff1663ac3c0e30336040518263ffffffff1660e01b81526004016116379190612757565b602060405180830381865afa158015611652573d5f5f3e3d5ffd5b505050506040513d601f19601f820116820180604052508101906116769190612b16565b90505f81036116b1576040517f83bcfb4700000000000000000000000000000000000000000000000000000000815260040160405180910390fd5b5f7f000000000000000000000000000000000000000000000000000000000000000073ffffffffffffffffffffffffffffffffffffffff16631106a382836040518263ffffffff1660e01b815260040161170b919061242d565b6040805180830381865afa158015611725573d5f5f3e3d5ffd5b505050506040513d601f19601f820116820180604052508101906117499190612c76565b509050826006015481101561178a576040517fc4ce24b800000000000000000000000000000000000000000000000000000000815260040160405180910390fd5b7f000000000000000000000000000000000000000000000000000000000000000073ffffffffffffffffffffffffffffffffffffffff1663f0dca0a0836040518263ffffffff1660e01b81526004016117e3919061242d565b602060405180830381865afa1580156117fe573d5f5f3e3d5ffd5b505050506040513d601f19601f820116820180604052508101906118229190612b16565b60015f8481526020019081526020015f20541061186b576040517f9907008b00000000000000000000000000000000000000000000000000000000815260040160405180910390fd5b6001836007015f6101000a81548160ff021916908360048111156118925761189161255a565b5b0217905550338360070160016101000a81548173ffffffffffffffffffffffffffffffffffffffff021916908373ffffffffffffffffffffffffffffffffffffffff16021790555042836008018190555060015f8381526020019081526020015f205f81548092919061190490612cb4565b91905055507f000000000000000000000000000000000000000000000000000000000000000073ffffffffffffffffffffffffffffffffffffffff1663b24c9fb73486336040518463ffffffff1660e01b8152600401611965929190612b68565b5f604051808303818588803b15801561197c575f5ffd5b505af115801561198e573d5f5f3e3d5ffd5b50505050503373ffffffffffffffffffffffffffffffffffffffff16847f6d8a5bca396094eff00461dbcb1d176cb6722fd703396e3740f4acfcd740ffc4346040516119da919061242d565b60405180910390a35050506119ed61224a565b50565b5f600254905090565b5f611a02611fbc565b655af3107a400066038d7ea4c68000611a1b9190612a17565b341015611a54576040517f1101129400000000000000000000000000000000000000000000000000000000815260040160405180910390fd5b428311611a8d576040517fd36c850000000000000000000000000000000000000000000000000000000000815260040160405180910390fd5b5f655af3107a400034611aa09190612a8e565b905060025f8154611ab090612cb4565b91905081905591505f5f8414611ac65783611ac9565b603c5b90506040518061016001604052803373ffffffffffffffffffffffffffffffffffffffff1681526020018c81526020018b8b8080601f0160208091040260200160405190810160405280939291908181526020018383808284375f81840152601f19601f82011690508083019250505050505050815260200189898080601f0160208091040260200160405190810160405280939291908181526020018383808284375f81840152601f19601f8201169050808301925050505050505081526020018381526020018681526020018781526020015f6004811115611bb057611baf61255a565b5b81526020015f73ffffffffffffffffffffffffffffffffffffffff1681526020015f8152602001828152505f5f8581526020019081526020015f205f820151815f015f6101000a81548173ffffffffffffffffffffffffffffffffffffffff021916908373ffffffffffffffffffffffffffffffffffffffff160217905550602082015181600101556040820151816002019081611c4e9190612ebf565b506060820151816003019081611c649190612ebf565b506080820151816004015560a0820151816005015560c0820151816006015560e0820151816007015f6101000a81548160ff02191690836004811115611cad57611cac61255a565b5b02179055506101008201518160070160016101000a81548173ffffffffffffffffffffffffffffffffffffffff021916908373ffffffffffffffffffffffffffffffffffffffff160217905550610120820151816008015561014082015181600901559050505f7f000000000000000000000000000000000000000000000000000000000000000073ffffffffffffffffffffffffffffffffffffffff16655af3107a4000604051611d5e90612fb8565b5f6040518083038185875af1925050503d805f8114611d98576040519150601f19603f3d011682016040523d82523d5f602084013e611d9d565b606091505b5050905080611de1576040517f08c379a0000000000000000000000000000000000000000000000000000000008152600401611dd890613026565b60405180910390fd5b7f000000000000000000000000000000000000000000000000000000000000000073ffffffffffffffffffffffffffffffffffffffff16635d75365984866040518363ffffffff1660e01b8152600401611e3b919061242d565b5f604051808303818588803b158015611e52575f5ffd5b505af1158015611e64573d5f5f3e3d5ffd5b50505050508b847f60af5010ab04e79e41cf3b482d045e585a8506343a105a336c42d1259c70a66c8589604051611e9c929190613044565b60405180910390a3505050611eaf61224a565b98975050505050505050565b5f73ffffffffffffffffffffffffffffffffffffffff1660035f9054906101000a900473ffffffffffffffffffffffffffffffffffffffff1673ffffffffffffffffffffffffffffffffffffffff1614611f4a576040517f08c379a0000000000000000000000000000000000000000000000000000000008152600401611f41906130b5565b60405180910390fd5b8060035f6101000a81548173ffffffffffffffffffffffffffffffffffffffff021916908373ffffffffffffffffffffffffffffffffffffffff16021790555050565b655af3107a400081565b60035f9054906101000a900473ffffffffffffffffffffffffffffffffffffffff1681565b611fc4612264565b6002611fd6611fd16122a5565b6122ce565b5f0181905550565b5f5f5f8681526020019081526020015f2090506002816007015f6101000a81548160ff021916908360048111156120185761201761255a565b5b02179055505f7f000000000000000000000000000000000000000000000000000000000000000073ffffffffffffffffffffffffffffffffffffffff1663ac3c0e30856040518263ffffffff1660e01b81526004016120779190612757565b602060405180830381865afa158015612092573d5f5f3e3d5ffd5b505050506040513d601f19601f820116820180604052508101906120b69190612b16565b905060015f8281526020019081526020015f205f8154809291906120d990612b41565b91905055507f000000000000000000000000000000000000000000000000000000000000000073ffffffffffffffffffffffffffffffffffffffff1663eeca865e87866040518363ffffffff1660e01b8152600401612139929190612b68565b5f604051808303815f87803b158015612150575f5ffd5b505af1158015612162573d5f5f3e3d5ffd5b505050507f000000000000000000000000000000000000000000000000000000000000000073ffffffffffffffffffffffffffffffffffffffff1663ff22c701826001866040518463ffffffff1660e01b81526004016121c4939291906130d3565b5f604051808303815f87803b1580156121db575f5ffd5b505af11580156121ed573d5f5f3e3d5ffd5b505050508373ffffffffffffffffffffffffffffffffffffffff16867f0686c8bf1771ea121e9bbd49868a68dbe9848530ce35d5c5ee30c6b64d7326d9878660405161223a92919061311b565b60405180910390a3505050505050565b600161225c6122576122a5565b6122ce565b5f0181905550565b61226c6122d7565b156122a3576040517f3ee5aeb500000000000000000000000000000000000000000000000000000000815260040160405180910390fd5b565b5f7f9b779b17422d0df92223018b32b4d1fa46e071723d6817e2486d003becc55f005f1b905090565b5f819050919050565b5f60026122ea6122e56122a5565b6122ce565b5f015414905090565b6040518061016001604052805f73ffffffffffffffffffffffffffffffffffffffff1681526020015f815260200160608152602001606081526020015f81526020015f81526020015f81526020015f60048111156123545761235361255a565b5b81526020015f73ffffffffffffffffffffffffffffffffffffffff1681526020015f81526020015f81525090565b5f73ffffffffffffffffffffffffffffffffffffffff82169050919050565b5f819050919050565b5f6123c46123bf6123ba84612382565b6123a1565b612382565b9050919050565b5f6123d5826123aa565b9050919050565b5f6123e6826123cb565b9050919050565b6123f6816123dc565b82525050565b5f60208201905061240f5f8301846123ed565b92915050565b5f819050919050565b61242781612415565b82525050565b5f6020820190506124405f83018461241e565b92915050565b5f5ffd5b5f5ffd5b61245781612415565b8114612461575f5ffd5b50565b5f813590506124728161244e565b92915050565b5f6020828403121561248d5761248c612446565b5b5f61249a84828501612464565b91505092915050565b5f6124ad82612382565b9050919050565b6124bd816124a3565b82525050565b5f819050919050565b6124d5816124c3565b82525050565b5f81519050919050565b5f82825260208201905092915050565b8281835e5f83830152505050565b5f601f19601f8301169050919050565b5f61251d826124db565b61252781856124e5565b93506125378185602086016124f5565b61254081612503565b840191505092915050565b61255481612415565b82525050565b7f4e487b71000000000000000000000000000000000000000000000000000000005f52602160045260245ffd5b600581106125985761259761255a565b5b50565b5f8190506125a882612587565b919050565b5f6125b78261259b565b9050919050565b6125c7816125ad565b82525050565b5f61016083015f8301516125e35f8601826124b4565b5060208301516125f660208601826124cc565b506040830151848203604086015261260e8282612513565b915050606083015184820360608601526126288282612513565b915050608083015161263d608086018261254b565b5060a083015161265060a086018261254b565b5060c083015161266360c086018261254b565b5060e083015161267660e08601826125be565b5061010083015161268b6101008601826124b4565b506101208301516126a061012086018261254b565b506101408301516126b561014086018261254b565b508091505092915050565b5f6020820190508181035f8301526126d881846125cd565b905092915050565b6126e9816124c3565b81146126f3575f5ffd5b50565b5f81359050612704816126e0565b92915050565b5f5f604083850312156127205761271f612446565b5b5f61272d85828601612464565b925050602061273e858286016126f6565b9150509250929050565b612751816124a3565b82525050565b5f60208201905061276a5f830184612748565b92915050565b612779816124a3565b8114612783575f5ffd5b50565b5f8135905061279481612770565b92915050565b5f5f5f5f608085870312156127b2576127b1612446565b5b5f6127bf87828801612464565b94505060206127d0878288016126f6565b93505060406127e187828801612786565b92505060606127f287828801612464565b91505092959194509250565b5f612808826123cb565b9050919050565b612818816127fe565b82525050565b5f6020820190506128315f83018461280f565b92915050565b5f5ffd5b5f5ffd5b5f5ffd5b5f5f83601f84011261285857612857612837565b5b8235905067ffffffffffffffff8111156128755761287461283b565b5b6020830191508360018202830111156128915761289061283f565b5b9250929050565b5f5f5f5f5f5f5f5f60c0898b0312156128b4576128b3612446565b5b5f6128c18b828c016126f6565b985050602089013567ffffffffffffffff8111156128e2576128e161244a565b5b6128ee8b828c01612843565b9750975050604089013567ffffffffffffffff8111156129115761291061244a565b5b61291d8b828c01612843565b955095505060606129308b828c01612464565b93505060806129418b828c01612464565b92505060a06129528b828c01612464565b9150509295985092959890939650565b5f6020828403121561297757612976612446565b5b5f61298484828501612786565b91505092915050565b7f4e487b71000000000000000000000000000000000000000000000000000000005f52602260045260245ffd5b5f60028204905060018216806129d157607f821691505b6020821081036129e4576129e361298d565b5b50919050565b7f4e487b71000000000000000000000000000000000000000000000000000000005f52601160045260245ffd5b5f612a2182612415565b9150612a2c83612415565b9250828201905080821115612a4457612a436129ea565b5b92915050565b612a53816124c3565b82525050565b5f606082019050612a6c5f83018661241e565b612a796020830185612a4a565b612a866040830184612748565b949350505050565b5f612a9882612415565b9150612aa383612415565b9250828203905081811115612abb57612aba6129ea565b5b92915050565b5f612acb82612415565b9150612ad683612415565b9250828202612ae481612415565b91508282048414831517612afb57612afa6129ea565b5b5092915050565b5f81519050612b108161244e565b92915050565b5f60208284031215612b2b57612b2a612446565b5b5f612b3884828501612b02565b91505092915050565b5f612b4b82612415565b91505f8203612b5d57612b5c6129ea565b5b600182039050919050565b5f604082019050612b7b5f83018561241e565b612b886020830184612748565b9392505050565b5f8115159050919050565b612ba381612b8f565b82525050565b5f819050919050565b5f612bcc612bc7612bc284612ba9565b6123a1565b612415565b9050919050565b612bdc81612bb2565b82525050565b5f82825260208201905092915050565b50565b5f612c005f83612be2565b9150612c0b82612bf2565b5f82019050919050565b5f608082019050612c285f83018661241e565b612c356020830185612b9a565b612c426040830184612bd3565b8181036060830152612c5381612bf5565b9050949350505050565b5f602082019050612c705f830184612b9a565b92915050565b5f5f60408385031215612c8c57612c8b612446565b5b5f612c9985828601612b02565b9250506020612caa85828601612b02565b9150509250929050565b5f612cbe82612415565b91507fffffffffffffffffffffffffffffffffffffffffffffffffffffffffffffffff8203612cf057612cef6129ea565b5b600182019050919050565b7f4e487b71000000000000000000000000000000000000000000000000000000005f52604160045260245ffd5b5f819050815f5260205f209050919050565b5f6020601f8301049050919050565b5f82821b905092915050565b5f60088302612d847fffffffffffffffffffffffffffffffffffffffffffffffffffffffffffffffff82612d49565b612d8e8683612d49565b95508019841693508086168417925050509392505050565b5f612dc0612dbb612db684612415565b6123a1565b612415565b9050919050565b5f819050919050565b612dd983612da6565b612ded612de582612dc7565b848454612d55565b825550505050565b5f5f905090565b612e04612df5565b612e0f818484612dd0565b505050565b5b81811015612e3257612e275f82612dfc565b600181019050612e15565b5050565b601f821115612e7757612e4881612d28565b612e5184612d3a565b81016020851015612e60578190505b612e74612e6c85612d3a565b830182612e14565b50505b505050565b5f82821c905092915050565b5f612e975f1984600802612e7c565b1980831691505092915050565b5f612eaf8383612e88565b9150826002028217905092915050565b612ec8826124db565b67ffffffffffffffff811115612ee157612ee0612cfb565b5b612eeb82546129ba565b612ef6828285612e36565b5f60209050601f831160018114612f27575f8415612f15578287015190505b612f1f8582612ea4565b865550612f86565b601f198416612f3586612d28565b5f5b82811015612f5c57848901518255600182019150602085019450602081019050612f37565b86831015612f795784890151612f75601f891682612e88565b8355505b6001600288020188555050505b505050505050565b5f81905092915050565b5f612fa35f83612f8e565b9150612fae82612bf2565b5f82019050919050565b5f612fc282612f98565b9150819050919050565b5f82825260208201905092915050565b7f466565207472616e73666572206661696c6564000000000000000000000000005f82015250565b5f613010601383612fcc565b915061301b82612fdc565b602082019050919050565b5f6020820190508181035f83015261303d81613004565b9050919050565b5f6040820190506130575f83018561241e565b613064602083018461241e565b9392505050565b7f416c7265616479207365740000000000000000000000000000000000000000005f82015250565b5f61309f600b83612fcc565b91506130aa8261306b565b602082019050919050565b5f6020820190508181035f8301526130cc81613093565b9050919050565b5f6080820190506130e65f83018661241e565b6130f36020830185612b9a565b613100604083018461241e565b818103606083015261311181612bf5565b9050949350505050565b5f60408201905061312e5f830185612a4a565b61313b602083018461241e565b939250505056fea2646970667358221220f28f8a96e1238bec6ce8c636d532616c385d19a87781c5c08524cb92a199321964736f6c634300081e0033","linkReferences":{}},"methodIdentifiers":{"CLAIM_BOND()":"e2927519","DEFAULT_CLAIM_WINDOW()":"4e333b25","LISTING_FEE()":"2b86ae38","MIN_BOUNTY()":"1307e576","activeClaims(uint256)":"4afe6806","agentRegistry()":"0d1cfcae","bountyEscrow()":"7d4ddcd3","claimTask(uint256)":"8dd33495","executionVerifier()":"fc410773","expireTask(uint256)":"62ecc47a","getTask(uint256)":"1d65e77e","postTask(bytes32,bytes,bytes,uint256,uint256,uint256)":"c97a034c","setExecutionVerifier(address)":"d22cba52","settleDisputed(uint256)":"5a763aa2","settleVerified(uint256,bytes32,address,uint256)":"7c0e9064","submitProof(uint256,bytes32)":"2f19c56a","taskCount()":"b6cb58a5","treasury()":"61d027b3"},"id":46}